:100000000C94D9000C9468070C9443070C940101DC
:100010000C9401010C9401010C948D070C940101C6
:100020000C9401010C9401010C9401010C94010148
:100030000C9401010C9401010C9401010C94010138
:100040000C94EC060C9401010C94BA060C949406E2
:100050000C9401010C9401010C9401010C94010118
:100060000C9401010C9401010A0B0C0D0E0F000100
:10007000020304050000000000000000010101016E
:10008000010101010202020202020203030303034F
:100090000404040505050505060606060707070806
:1000A00008080808090A0A0A0A0B0B0C0C0C0C0DAC
:1000B0000D0D0E0E0F0F0F1011111111121213143E
:1000C0001414141516161717171819191A1A1B1BBA
:1000D0001C1C1D1E1E1F1F20212122232324252519
:1000E0002626272829292A2B2C2D2D2E2F2F30315B
:1000F000323334353636373838393A3B3C3D3E3F7B
:10010000404142434445454647494A4B4C4D4E4F7A
:1001100050515254555657595A5B5D5E5F6061624B
:1001200064656667696A6C6D6E6F717375767779F1
:100130007A7B7C7F808283858688898B8C8F919265
:10014000939497999A9C9E9FA2A3A5A7A9ABADAEA5
:10015000B0B3B4B6B9BABCBEC0C2C4C7C9CACDCFA9
:10016000D1D3D6D8DADCDFE1E2E6E7EBECF0F1F56B
:10017000F6FAFBFF00000000240027002A00000020
:100180000000250028002B000404040404040404D7
:100190000202020202020303030303030102040832
:1001A00010204080010204081020010204081020E1
:1001B0009C0711241FBECFEFD4E0DEBFCDBF11E0FE
:1001C000A0E0B1E0E2E9FCE202C005900D92AE379A
:1001D000B107D9F724E0AEE7B1E001C01D92AF3A14
:1001E000B207E1F710E0C9EDD0E004C02197FE01AD
:1001F0000E944116C83DD107C9F70E94B8080C9467
:1002000047160C940000CF92DF92EF92FF920F936B
:100210001F93382F613009F45AC08830D0F42AB1C6
:1002200081E090E0A0E0B0E004C0880F991FAA1F11
:10023000BB1F3A95D2F78095922F98239AB99BB11C
:1002400089238BB91F910F91FF90EF90DF90CF9092
:1002500008958E30B8F424B18850990BAC0181E038
:1002600090E0A0E0B0E004C0880F991FAA1FBB1F58
:100270004A95D2F78095922F982394B995B1892306
:1002800085B9E0CF8431F0F6E7B190E09C012E50C3
:10029000310941E050E060E070E06A017B0104C098
:1002A000CC0CDD1CEE1CFF1C2A95D2F786010095B4
:1002B0000E2307B928B1089704C0440F551F661FC5
:1002C000771F8A95D2F74095422348B9BBCF883033
:1002D00088F42AB141E050E060E070E0DB01CA013F
:1002E00004C0880F991FAA1FBB1F3A95D2F7822B13
:1002F0008AB9A8CF8E3090F424B18850990BAC0104
:1003000081E090E0A0E0B0E004C0880F991FAA1F30
:10031000BB1F4A95D2F7822B84B994CF843108F061
:1003200091CF27B18E50990BAC0181E090E0A0E015
:10033000B0E004C0880F991FAA1FBB1F4A95D2F7CF
:10034000822B87B97FCF4F925F926F927F928F926D
:100350009F92AF92BF92CF92DF92EF92FF920F9354
:100360001F93CF93DF9300D01F92CDB7DEB780915C
:10037000AA04E091A204F091A3049081982B909399
:10038000AC049081809589238093AD04F09099040A
:10039000F0929A040091A0041091A1040115110596
:1003A00009F4AAC0E9EBF2E029E934E0412C512C30
:1003B0003201CF2CD12CA6014F5F5F4F81919191DB
:1003C000A92FBB27A87FBB27A49FB001A59F700DB5
:1003D000B49F700D1124672F7727460E571E611C9E
:1003E000711CDC0163E0B695A7956A95E1F7AC7FD7
:1003F000BB27A49FB001A59F700DB49F700D112461
:10040000672F7727460E571E611C711CB3E0880FBB
:10041000991FBA95E1F79927849FB001859F700DC8
:10042000949F700D1124672F7727460E571E611C6D
:10043000711C2E173F0711F6552777FC5A95472D4B
:10044000362D252DA091B502B091B6020E945A1307
:1004500023E030E040E050E00E94301329013A01EF
:10046000A091B702B091B802411451046104710423
:1004700009F440C020EF30E00E943A1628EE33E045
:1004800040E050E00E94301353014201820E931E5F
:10049000A41EB51EC801012E000CAA0BBB0B8816AA
:1004A0009906AA06BB0634F1B801621B730B072E2E
:1004B000000C880B990B0E94A8144B015C01B6013B
:1004C000DD0C880B990B0E94A8149B01AC01C5019F
:1004D000B4010E945D156B017C01C301B2010E9451
:1004E000A8149B01AC01C701B6010E9405140E942B
:1004F0007714F62EF0929A04E9EBF2E069E974E0E1
:100500008E010C5F1F4F2191319180919A0490E0F0
:100510000196432F5527487F5527489FD001499F73
:10052000B00D589FB00D1124BA83A901A3E05695D0
:100530004795AA95E1F74C7F5527489FD001499FE1
:10054000B00D589FB00D1124B983B3E0220F331FB3
:10055000BA95E1F73327289FA001299F500D389FB6
:10056000500D11245B838FB78093AE04F8945091A3
:10057000AC04F090AD04C090A204D090A304CE01CE
:100580000196DC012D91CD01D60138E05C9327FF67
:10059000FC92220F43E04A95F1F70000FC923A9555
:1005A000A9F70817190769F78091AE048FBF6E1776
:1005B0007F0709F0A8CF0F900F900F90DF91CF9198
:1005C0001F910F91FF90EF90DF90CF90BF90AF9071
:1005D0009F908F907F906F905F904F900895AF9213
:1005E000BF92CF92DF92EF92FF920F931F93CF9320
:1005F000DF936C017B018B01040F151FEB015E0182
:10060000AE18BF08C017D10759F06991D601ED9116
:10061000FC910190F081E02DC6010995892B79F7B5
:10062000C501DF91CF911F910F91FF90EF90DF9067
:10063000CF90BF90AF900895FC01538D448D252F2E
:1006400030E0842F90E0821B930B541710F0CF966C
:10065000089501970895FC01918D828D981761F09E
:10066000A28DAE0FBF2FB11D5D968C91928D9F5FB5
:100670009F73928F90E008958FEF9FEF0895FC0194
:10068000918D828D981731F0828DE80FF11D858D47
:1006900090E008958FEF9FEF0895FC01918D228DDA
:1006A000892F90E0805C9F4F821B91098F7399275F
:1006B00008958FE991E00E944D0321E0892B09F410
:1006C00020E0822F089580E090E0892B29F00E949D
:1006D000590381110C9400000895FC01A48DA80F0A
:1006E000B92FB11DA35ABF4F2C91848D90E0019674
:1006F0008F739927848FA689B7892C93A089B18994
:100700008C91837080648C93938D848D981306C034
:100710000288F389E02D80818F7D80830895EF9298
:10072000FF920F931F93CF93DF93EC0181E0888FAB
:100730009B8D8C8D98131AC0E889F989808185FF7B
:1007400015C09FB7F894EE89FF896083E889F9891D
:1007500080818370806480839FBF81E090E0DF911F
:10076000CF911F910F91FF90EF900895F62E0B8D72
:1007700010E00F5F1F4F0F731127E02E8C8D8E112D
:100780000CC00FB607FCFACFE889F989808185FF94
:10079000F5CFCE010E946D03F1CFEB8DEC0FFD2F55
:1007A000F11DE35AFF4FF0829FB7F8940B8FEA894F
:1007B000FB8980818062CFCFCF93DF93EC01888D5E
:1007C0008823B9F0AA89BB89E889F9898C9185FDCC
:1007D00003C0808186FD0DC00FB607FCF7CF8C915A
:1007E00085FFF2CF808185FFEDCFCE010E946D03A2
:1007F000E9CFDF91CF9108953FB7F89480918301BD
:1008000090918401A0918501B091860126B5A89BA5
:1008100005C02F3F19F00196A11DB11D3FBFBA2F92
:10082000A92F982F8827BC01CD01620F711D811D52
:10083000911D42E0660F771F881F991F4A95D1F7D7
:1008400008958F929F92AF92BF92CF92DF92EF92D4
:10085000FF926B017C010E94FC034B015C010E9432
:10086000FC03681979098A099B09683E7340810570
:100870009105A8F381E0C81AD108E108F10828EE33
:10088000820E23E0921EA11CB11CC114D104E1040C
:10089000F10429F7FF90EF90DF90CF90BF90AF90D9
:1008A0009F908F9008952FB7F89460917F01709179
:1008B000800180918101909182012FBF0895482F7E
:1008C000E62F282F30E0863009F459C000F5833038
:1008D000E1F1853009F44FC04830E0F14E3010F1BD
:1008E000443108F063C02E50310981E090E0A0E06F
:1008F000B0E004C0880F991FAA1FBB1F2A95D2F72A
:1009000028B1EE2309F44FC0822B88B908958A30AC
:10091000C9F18B30D9F18930F9F6809180008F7759
:10092000809380002850310981E090E0A0E0B0E0A1
:1009300004C0880F991FAA1FBB1F2A95D2F7E11187
:100940002EC025B1809582232CC09091B0009F7D50
:100950009093B00081E090E0A0E0B0E004C0880F88
:10096000991FAA1FBB1F4A95D2F72BB1EE23A1F006
:10097000822B8BB9089594B59F7D94BDEBCF94B530
:100980009F77FBCF809180008F7DCACF8091B00090
:100990008F778093B000C6CF80958223EACF25B1B0
:1009A000822B85B9089580958223AFCF0895109248
:1009B000830280918602882341F06091630281E086
:1009C0006827809162020C945F040895682F8091DB
:1009D00041020E945F048091590290915A02823034
:1009E000910538F0880F991F880F991F0597019777
:1009F000F1F7089581E00C94E6048EBD00000DB47B
:100A000007FEFDCF8EB508959093910280939002DA
:100A100020918302211139C090938D0280938C0222
:100A2000009711F1BC0190E080E00E94A6149B01A8
:100A3000AC0160E070E080E090E40E9405140E9448
:100A4000D01520E03AE045E259E40E945D150E948D
:100A5000771460939402709395028093960290931A
:100A600097021092850208958091790290917A02FE
:100A7000A0917B02B0917C028093940290939502A6
:100A8000A0939602B0939702ECCF81E08093850209
:100A900008950F931F9300914302109144022091F7
:100AA00045023091460240E052E16AE770E080E0A2
:100AB000041715072607370740F47695679557956D
:100AC00047958F5F8630A1F787E0982F906A9695BB
:100AD000809581709CBD8DBD80E01F910F910C941D
:100AE000E604CF93C82F0E9449058C2F80620E9494
:100AF000FD0480934702CF910C94FA04CF93C82F42
:100B00000E9449058C2F0E94FD04809347028FEFBD
:100B10000E94FD04C82F0E94FA048C2FCF910895E3
:100B2000FF920F931F93CF93DF93C82FF62E072FBB
:100B3000142F0E9449058C2F80620E94FD0480932F
:100B40004702CF2DD02F115020F089910E94FD0433
:100B5000FACFDF91CF911F910F91FF900C94FA047F
:100B60000E94490580E50E94FD048093470283E7C7
:100B70000E94FD040C94FA04CF93DF93D82FC62F64
:100B80000E9449058D2F80620E94FD0480934702D8
:100B90008C2F0E94FD04DF91CF910C94FA04609198
:100BA0004E0261FD0AC0626060934E0280E00E94C6
:100BB000BC058BE19EE40197F1F70895FC010190DB
:100BC0000020E9F73197AF01481B590BBC018FE9B1
:100BD00091E00C94EF028F929F92AF92BF920F938D
:100BE0001F93CF93DF93CDB7DEB7A1970FB6F894DD
:100BF000DEBF0FBECDBF19A2423008F44AE08E011D
:100C00000F5D1F4F842E912CB12CA12CA5019401B6
:100C10000E946213E62FB901CA01EA30F4F4E05DE4
:100C2000D801EE938D01232B242B252B79F790E00F
:100C300080E0109719F0CD010E94DE05A1960FB655
:100C4000F894DEBF0FBECDBFDF91CF911F910F9102
:100C5000BF90AF909F908F900895E95CE1CFCF93C4
:100C6000DF930E94DE05EC018AE491E00E94DE053C
:100C70008C0F9D1FDF91CF910895CF92DF92EF925D
:100C8000FF92CF93DF936C01990FEE08FF08F7FEF8
:100C90001FC06DE28FE991E00E948F03EC0166278F
:100CA0007727CB016C197D098E099F094AE00E94C4
:100CB000EB05C80FD91F8AE491E00E94DE058C0F76
:100CC0009D1FDF91CF91FF90EF90DF90CF9008951F
:100CD0004AE0C701B6010E94EB05EC01ECCFCF93CF
:100CE000DF93682F70E090E080E04AE00E94EB051F
:100CF000EC018AE491E00E94DE058C0F9D1FDF91DC
:100D0000CF910895CF93DF93BC0190E080E04AE05B
:100D10000E94EB05EC018AE491E00E94DE058C0F55
:100D20009D1FDF91CF9108951F920F920FB60F92E2
:100D300011242F933F934F935F936F937F938F93E0
:100D40009F93AF93BF93EF93FF938FE991E00E943E
:100D50006D03FF91EF91BF91AF919F918F917F9123
:100D60006F915F914F913F912F910F900FBE0F9018
:100D70001F9018951F920F920FB60F9211242F9368
:100D80008F939F93EF93FF93E091AF01F091B001A8
:100D90008081E091B501F091B60182FD1BC0908188
:100DA0008091B8018F5F8F732091B901821741F054
:100DB000E091B801F0E0E156FE4F958F8093B801C5
:100DC000FF91EF919F918F912F910F900FBE0F90F8
:100DD0001F9018958081F4CF1F920F920FB60F923B
:100DE00011248F939F93AF93BF9380917F01909134
:100DF0008001A0918101B09182010196A11DB11DD8
:100E000080937F0190938001A0938101B093820130
:100E100080917E0193E0980F9D37F0F490937E01CE
:100E20008091830190918401A0918501B091860108
:100E30000196A11DB11D8093830190938401A0931D
:100E40008501B0938601BF91AF919F918F910F90D3
:100E50000FBE0F901F9018958A5780937E01809146
:100E60007F0190918001A0918101B0918201019652
:100E7000A11DB11D80937F0190938001A0938101FA
:100E8000B0938201CDCF1F920F920FB60F92112413
:100E90002F933F934F935F936F937F938F939F9382
:100EA000AF93BF93EF93FF93F0E0E0E00995FF91DC
:100EB000EF91BF91AF919F918F917F916F915F91D2
:100EC0004F913F912F910F900FBE0F901F9018954B
:100ED0001F920F920FB60F9211242F933F934F93AF
:100EE0005F936F937F938F939F93AF93BF93EF9392
:100EF000FF93F0E0E0E00995FF91EF91BF91AF9192
:100F00009F918F917F916F915F914F913F912F9121
:100F10000F900FBE0F901F9018951F920F920FB653
:100F20000F9211248F9381E0809388018F910F900D
:100F30000FBE0F901F9018951F93CF93DF93EFE98B
:100F4000F1E01382128288EE93E0A0E0B0E08483A7
:100F50009583A683B7838CE391E09183808385ECAE
:100F600090E09587848784EC90E09787868780EC73
:100F700090E0918B808B81EC90E0938B828B82EC64
:100F800090E0958B848B86EC90E0978B868B118E0E
:100F9000128E138E148EA5EBB2E08EE290E01196C5
:100FA0009C938E9380ED97E013969C938E9312976B
:100FB00082E38093990480939A0410929B04109288
:100FC0009C0410929D0410929E0410929F04109213
:100FD000A1041092A0048FB78093AE04E3EAF1E07D
:100FE00024912093AA048FE891E0FC013491E32F2F
:100FF000F0E0EE0FFF1FE258FE4F459154915093E1
:10100000A3044093A204FC018491E82FF0E0EE0FCA
:10101000FF1FEC58FE4FC591D491D093A504C09307
:10102000A404E881E22BE8838EE190E011969C9382
:101030008E9384E992E013969C938E931297CDE55C
:10104000D2E0188219821A821B8211E01C838FEF72
:101050008D831E821F82188619861B861A861D861E
:101060001C86399AE7E9F1E0E491F0E0EE0FFF1F0A
:10107000E258FE4F859194919F878E87EBEAF1E0CD
:10108000E491EA8B3A9AE8E9F1E0E491F0E0EE0FBE
:10109000FF1FE258FE4F85919491998B888BECEA63
:1010A000F1E0E491EB8B81E18D833B9A1C8A1D8AF0
:1010B0001E8A1F8A80E197E2A0E0B0E0888F998FB6
:1010C000AA8FBB8F8C8F9D8FAE8FBF8F18A219A256
:1010D0001AA21BA21EA21FA218A619A61EA6109233
:1010E000B0021092B1021092B2021092B3021092AA
:1010F000B40220E330E03DA32CA38AA79BA7ACA7B2
:10110000BDA784E690E09AAB89AB8FA598A90E9411
:10111000040518A688EC90E00E940405EDE3F2E0D7
:1011200089E090E0938382838AE090E095838483D2
:1011300080E896E9A8E9B0E086839783A087B18725
:1011400080E28387128A138A85E0858B168B85E07F
:1011500090E0A0E0B0E0848F958FA68FB78F8CE3EE
:1011600092E0918380831486DF91CF911F9108953F
:10117000CF93DF93CDB7DEB769970FB6F894DEBF94
:101180000FBECDBFF89482E880937A0023E024BD9F
:1011900025BD80916E00816080936E0031E03093B8
:1011A00080008BE0809381003093B00084E08093D6
:1011B000B1001092C10078948FEF9FEF909393014C
:1011C00080939201E4E7F0E0E491E093990461E018
:1011D00082E00E94030161E082E00E945F0461E01E
:1011E00084E00E94030161E084E00E945F0460E00B
:1011F00082EB0E94030143E040933001E091AF0194
:10120000F091B00182E08083E091AF01F091B001F4
:101210001082E091AB01F091AC011082E091AD0140
:10122000F091AE0180E180831092B701E091B301AB
:10123000F091B40186E08083E091B101F091B201B8
:10124000808180618083E091B101F091B201808161
:1012500088608083E091B101F091B2018081806863
:101260008083E091B101F091B20180818F7D808314
:101270008DE491E00E942F0651E05093610282E8D4
:1012800096E0A0E0B0E08093750290937602A09380
:101290007702B093780283E0809383028091860284
:1012A000882331F060916302809162020E945F04A2
:1012B0006091630281E06827809162020E945F046E
:1012C0009FB79983F8948091870181111EC0E2E94C
:1012D000F1E08491E6EAF1E09491E82FF0E0EE0F7E
:1012E000FF1FEC58FE4FA591B491EC91E92321F436
:1012F00061E08AE00E945F04229A8CB580618CBD17
:101300008CB580648CBD259A239A809187018F5F6C
:1013100080938701A981AFBF80913F0290914002E5
:101320008F3F980709F496C0209141023091420204
:101330002F3F320709F48EC08217930741F061E016
:101340000E94030161E0809141020E9403018091AB
:101350003F02909140022091410230914202821757
:10136000930719F060E00E945F0481E00E94E604A8
:1013700065E070E080E090E00E9421046FE584E089
:101380000E94BC0585E590E0A0E0B0E080935502A6
:1013900090935602A0935702B093580267E086E0FC
:1013A0000E94BC058DE10E947E0589830E94B005E4
:1013B0008DE10E947E0591E0F981F81390E0909311
:1013C0004F02882349F02981281302C00E94B005EA
:1013D00060E08DE10E94BC051092510260E08CE15A
:1013E0000E94BC05109253026FE381E00E94BC058D
:1013F00063E082E00E94BC0580E28093480231E114
:1014000039836091480289810E94BC0549814F5F00
:1014100049834731B1F763E083E00E94BC0585E072
:10142000809352026CE40E94BC0560E787E00E9452
:10143000BC0582EE0E94710581EE0E9471056CE090
:1014400080E00E94BC0580E00E947E0580934E02F1
:101450000E94CF056FE381E00E94BC056FE084E04D
:101460000E94BC0580915102811115C08DE10E943E
:101470007E05682F66608DE10E94BC058CE10E94AC
:101480007E05682F63608CE10E94BC0581E080933B
:1014900053028093510280E28093480251E15983C4
:1014A0006091480289810E94BC0589818F5F898390
:1014B0008731B1F7409152026CE071E08AE00E94FE
:1014C0009005409152026CE071E080E10E9490052D
:1014D000E9E6F0E08491409152026CE071E00E94F4
:1014E000900582E00E947E05EFE6F0E0E49161E085
:1014F00070E001C0660FEA95EAF7682B82E00E946F
:10150000BC0568E685E00E94BC0586E00E947E0579
:10151000682F676086E00E94BC0586E00E947E0519
:1015200045E550E060E070E040935502509356026C
:101530006093570270935802682F677D86E00E947F
:10154000BC0586E00E947E0589E591E00E942F0699
:101550000E94CF050E94CF0560914E0261606093AA
:101560004E0280E00E94BC0560E787E00E94BC0557
:1015700080913F02909140022091410230914202BD
:101580008217930719F061E00E945F048091500276
:10159000882309F4FAC04091520269E472E08AE0BB
:1015A0000E949005109288010E94FC036B0188E163
:1015B00098E00FB6F894A895809360000FBE9093C2
:1015C000600080916000806480936000A8958091A5
:1015D00088018823E1F30FB6F894A8958091600004
:1015E000886180936000109260000FBE0E94FC032F
:1015F0006C197D09709306016093050184E0809366
:10160000040110920301E89868EC70E080E090E03B
:101610000E94210433243394F6EE2F2E809183020E
:10162000882309F480C00E94FC030091710210918C
:10163000720220917302309174026B017C01C01A16
:10164000D10AE20AF30A0091750210917602209104
:10165000770230917802C016D106E206F30608F44C
:1016600062C06093710270937202809373029093D0
:10167000740280918302882309F455C0209161028D
:10168000422F022E000C550B660B770B80915D02EA
:1016900090915E02A0915F02B0916002840F951F4D
:1016A000A61FB71F80935D0290935E02A0935F0216
:1016B000B0936002809165022817A1F02093650223
:1016C000E0916D02F0916E0281E012160CF080E064
:1016D00090916402891709F46DC080917002908125
:1016E000892B808380916F02E0916B02F0916C02F4
:1016F0009081892B80838BE090E00197F1F78091B6
:101700006F02E0916B02F0916C02908180958923C9
:10171000808320918302213030F0233008F450C0C0
:10172000243009F44CC38FEF0E9471058091470269
:1017300090E095958795182F1770163008F02AC5F8
:10174000809153028111C8C300914802F02E0330EA
:1017500010F092E0F92E0F190E94490581E60E94CF
:10176000FD04809347022DE931E03A832983FA94FE
:101770003FEFF31609F4B4C38FEF0E94FD04A98173
:10178000BA818D93BA83A983F2CF82E00E947E054D
:10179000EEE6F0E0E49121E030E001C0220FEA95AE
:1017A000EAF72095622F682382E00E94BC05109220
:1017B0005002F8CE8091700290818095892391CF5C
:1017C0004091AC025091AD026091AE027091AF02B7
:1017D0004A015B019FEF891A990AA90AB90A809206
:1017E000AC029092AD02A092AE02B092AF02809194
:1017F000A0029091A102A091A202B091A30288162A
:101800009906AA06BB060CF059C0C0909802D09069
:101810009902E0909A02F0909B02C701B601660F10
:10182000771F881F991F0091A8021091A90220918B
:10183000AA023091AB02080D191D2A1D3B1DA901FA
:101840009801E2E0220F331F441F551FEA95D1F79C
:101850002F5F3F4F4F4F5F4F0E946213C21AD30A50
:10186000E40AF50AC0929802D0929902E0929A0294
:10187000F0929B02FAE0F694E794D794C794FA9515
:10188000D1F78091790290917A02A0917B02B09178
:101890007C02C816D906EA06FB0628F1809194025C
:1018A00090919502A0919602B0919702C816D90620
:1018B000EA06FB06C0F4D701C60115C08091A40258
:1018C0009091A502A091A602B091A7028816990650
:1018D000AA06BB068CF48091790290917A02A091BD
:1018E0007B02B0917C028093750290937602A09364
:1018F0007702B093780217CF80919C0290919D025D
:10190000A0919E02B0919F0288169906AA06BB0676
:1019100054F5C0909802D0909902E0909A02F0900D
:101920009B0226013701440C551C661C771C881944
:101930009909AA09BB094C015D0102E0880C991CB8
:10194000AA1CBB1C0A95D1F7A50194012F5F3F4F3C
:101950004F4F5F4FC301B2010E946213C20ED31EEC
:10196000E41EF51E7FCF8091B402882309F420C2C3
:101970000E94D7048090B0029090B102A090B20271
:10198000B090B30280918B02882329F00E94D70483
:1019900030928402C8CE80918502882311F1209173
:1019A0008702309188024091890250918A022093E7
:1019B000790230937A0240937B0250937C0260E478
:1019C00072E48FE090E00E94621330938F022093C4
:1019D0008E0280919002909191020E9404051092D3
:1019E000850280927D0290927E02A0927F02B09248
:1019F000800240905D0250905E0260905F027090A5
:101A0000600284149504A604B70409F4BFCF1092B1
:101A1000B40275016401C418D508E608F708F7FE9A
:101A200008C0F094E094D094C094C11CD11CE11C77
:101A3000F11CC0929C02D0929D02E0929E02F09214
:101A40009F02481459046A047B040CF043C1A1E0CE
:101A5000AD8BE0918302E98FEE2309F43EC1209122
:101A6000750230917602409177025091780260E4DD
:101A700072E48FE090E00E94621329833A834B83E3
:101A80005C8329813A814B815C81CA01B9010E9442
:101A90002A1669877A878B879C8700918C02109120
:101AA0008D02980150E040E02D873E874F87588B8C
:101AB000220F331F441F551F298B3A8B4B8B5C8B96
:101AC0000E9430132D833E834F835887C216D3065E
:101AD000E406F50644F0398D332381F180916102EB
:101AE0004D89841759F13092B4028092B0029092DD
:101AF000B102A092B202B092B302A09161020A2E8A
:101B0000000CBB0B2D813E814F8158850E945A13DA
:101B1000640D751D861D971D60937D0270937E0276
:101B200080937F0290938002DA01C90180939C0226
:101B300090939D02A0939E02B0939F0280917902A0
:101B400090917A02A0917B02B0917C02C0909C029D
:101B5000D0909D02E0909E02F0909F02012B09F42C
:101B60000CC1803EE3E99E07E4E0AE07B10508F052
:101B700004C1A0918E02B0918F029D010E94841336
:101B80004B015C0169857A858B859C852D853E8519
:101B90004F8558890E9430132D8B3E8B4F8B588F69
:101BA000C501B4012D853E854F8558890E943013AB
:101BB0008D899E89AF89B88DB595A795979587959D
:101BC000281B390B4A0B5B0BC216D306E406F5063D
:101BD0000CF0A6C08091B402882309F483C010924F
:101BE000A0021092A1021092A2021092A302809170
:101BF000A0029091A102A091A202B091A3028093B1
:101C0000A4029093A502A093A602B093A7028D818F
:101C10009E81AF81B8858093A8029093A902A0937A
:101C2000AA02B093AB0229813A814B815C81232BBC
:101C3000242B252B81F48091940290919502A09100
:101C40009602B09197028093750290937602A093CA
:101C50007702B09378028091750290917602A091FC
:101C60007702B09178021AE0880F991FAA1FBB1F54
:101C70001A95D1F78093980290939902A0939A02B3
:101C8000B0939B021092AC021092AD021092AE0281
:101C90001092AF0280917D0290917E02A0917F020E
:101CA000B0918002481659066A067B060CF07EC089
:101CB00081E08093610230928302809186028823C2
:101CC00031F060916302809162020E945F04109281
:101CD000840229CDBFEFBD8BBCCE19821A821B8234
:101CE0001C82CFCED701C601B595A795979587954C
:101CF000CD88DE88EF88F88C22E0F594E794D794BD
:101D0000C7942A95D1F78C199D09AE09BF09809314
:101D1000A0029093A102A093A202B093A30267CF66
:101D2000C501B40129853A854B855C85621B730B1F
:101D3000840B950B29893A894B895C890E94301361
:101D40002093A0023093A1024093A2025093A302D9
:101D5000C501B40129893A894B895C890E943013F5
:101D6000C21AD30AE40AF50AC092A402D092A502CC
:101D7000E092A602F092A7024ACF1092A802109217
:101D8000A9021092AA021092AB021092A002109225
:101D9000A1021092A2021092A302C092A402D092B9
:101DA000A502E092A602F092A7024DCF8FEF81CF5D
:101DB000213011F4209384020E94D704B4CC4091C6
:101DC000920250919302415051095A834983509392
:101DD000930240939202C0909802D0909902E090B2
:101DE0009A02F0909B02C701B601660F771F881F09
:101DF000991F9A01550F440B550BE2E0220F331F38
:101E0000441F551FEA95D1F72F5F3F4F4F4F5F4F4C
:101E10000E946213C20ED31EE41EF51EC0929802E9
:101E2000D0929902E0929A02F0929B02FAE0F69424
:101E3000E794D794C794FA95D1F78091790290915D
:101E40007A02A0917B02B0917C02C816D906EA06FC
:101E5000FB0678F08091940290919502A0919602F1
:101E6000B0919702C816D906EA06FB0610F4D7010E
:101E7000C6018093750290937602A0937702B09387
:101E8000780200915D0210915E0220915F02309114
:101E9000600240917D0250917E0260917F027091BC
:101EA0008002041715072607370709F485CFE98153
:101EB000FA811E161F060CF07FCF409194025091BC
:101EC0009502609196027091970284179507A60774
:101ED000B70708F071CF27CC00E082E0F82E3CCCA9
:101EE000015020F08FEF0E94FD04FACF0E94FA0407
:101EF00060E487E00E94BC0580915102882361F173
:101F0000186A19838091530200E014E0811107C020
:101F100000914802102F053008F014E0011B0E94C8
:101F2000490589810E94FD0480934702E4E3F1E0C2
:101F3000FA83E983115040F0A981BA818D91BA8367
:101F4000A9830E94FD04F6CF015020F080E00E949A
:101F5000FD04FACF0E94FA04E0919D01F0919E01E8
:101F6000FA83E983319739F581E090E00E94820697
:101F700010929E0110929D01109133011325109330
:101F8000330129813A8130939C0120939B010E9467
:101F900053046093970170939801809399019093F3
:101FA0009A01812F90E00E943D0680919B019091C3
:101FB0009C010E943D0640919D0150919E015A83D3
:101FC000498342305105E1F482E090E00E948206AC
:101FD00010929E0110929D0189819A8190939C019B
:101FE00080939B010E945304609397017093980122
:101FF0008093990190939A0182E090E00E943D06BF
:1020000080919D0190919E01039709F583E090E0F6
:102010000E94820610929E0110929D01809196016D
:10202000843011F410929601809196018F5F809315
:1020300096010E94530460939701709398018093D6
:10204000990190939A01809195010E946F06809169
:102050009D0190919E01049719F584E090E00E9403
:10206000820610929E0110929D018091940183300E
:1020700011F410929401809194018F5F80939401E8
:102080000E94530460939701709398018093990183
:1020900090939A0180919201909193010E948206FF
:1020A00080919D0190919E010597F9F485E090E063
:1020B0000E94820610929E0110929D0190919101C2
:1020C0009325998390939101909363020E94530406
:1020D00060939701709398018093990190939A016E
:1020E000A9818A2F90E00E943D0680919D019091E8
:1020F0009E010697F9F486E090E00E948206109215
:102100009E0110929D01B0919001B325B983B093C7
:102110009001B09364020E945304609397017093FE
:1021200098018093990190939A01E9818E2F90E014
:102130000E943D0680919D0190919E01079791F428
:1021400087E090E00E94820610929E0110929D010D
:102150000E945304609397017093980180939901B2
:1021600090939A0180919D0190919E01089791F41E
:1021700088E090E00E94820610929E0110929D01DC
:102180000E94530460939701709398018093990182
:1021900090939A0120919501A0918E01B0918F01A9
:1021A00030E00E943A1624EF31E040E050E00E9417
:1021B000301320938D0180919601823009F4ACC0D8
:1021C00008F097C0882309F49DC0813009F4A0C0AD
:1021D00080919401813009F4B2C008F4A7C0823024
:1021E00009F4B6C0833009F4BAC08091330181117B
:1021F00031C080919B0190919C01019759F5E0912C
:102200008E01F0918F01FA83E983E43FF14014F5E8
:1022100010918D01E12FF0E0EC58FF4FE491E09335
:1022200099048091920190919301E9EBF2E08193FE
:10223000919334E0E939F307D1F70E94A301498172
:102240005A814F5F5F4F50938F0140938E01812FD2
:102250000E946F0680913301882381F180919B0158
:1022600090919C01019751F580918E0190918F0181
:102270009A838983029714F110918D01E12FF0E088
:10228000EC58FF4FE491E093990480919201909172
:102290009301E9EBF2E081939193A9E9B4E0AE17E1
:1022A000BF07C9F70E94A301E981FA813197F09332
:1022B0008F01E0938E01812F0E946F0680919B0118
:1022C00090919C01029709F07EC080918E019091BF
:1022D0008F012091310130913201181619060CF44A
:1022E00047C0319521953109309332012093310156
:1022F00044C08330B1F0843009F06ACF2092950158
:1023000086EE03C01092950180E00E946F0660CFB8
:102310008EE180939501F9CFF6E4F093950186E480
:10232000F4CF26E92093950186E9EFCF109293012F
:102330001092920190E080E00E94820656CF4FEF0B
:102340005FEF50939301409392018FEF9FEFF4CF93
:102350008FE190E09093930180939201EDCFA0E004
:10236000B8EFB0939301A093920180E098EFE4CF8F
:10237000883EF3E09F070CF0B4CF20918D012983B4
:10238000E22FF0E0EC58FF4FE491E09399042091A4
:10239000920130919301E9EBF2E02193319349E905
:1023A00054E04E175F07C9F7209131013091320197
:1023B000820F931F90938F0180938E010E94A3013F
:1023C00089810E946F060E94530400919701109129
:1023D00098012091990130919A01601B710B820B39
:1023E000930B60387E4E8643910550F00E94530453
:1023F00060939701709398018093990190939A014B
:102400000E9453040091890110918A0120918B014F
:1024100030918C01601B710B820B930B603E7E42EE
:102420008105910540F060E084E00E945F0485E64C
:1024300091E00E942F060E9453040091890110919F
:102440008A0120918B0130918C01601B710B820BF2
:10245000930B603770438105910590F061E084E053
:102460000E945F048CE691E00E942F060E945304B4
:102470006093890170938A0180938B0190938C0102
:102480000E945304603375478105910508F449C0E3
:102490000E94530480913001F0E48F9FC001112409
:1024A00080937C0080917A00806480937A00809190
:1024B0007A0086FDFCCF20917800309179003A8334
:1024C0002983B901330F880B990B0E94A8142AE0C5
:1024D00037ED43EA5BE30E945D156093340170932E
:1024E0003501809336019093370189819A810E944A
:1024F0003D06C0903401D0903501E0903601F09057
:102500003701A7019601C701B6010E941016882362
:10251000A9F082E791E00E94DE058AE491E00E9442
:10252000DE0540E050E0452B09F478C80E945903CD
:10253000882309F46FC80E9400006CC84601570147
:10254000E894B7F82FEF3FEF4FE75FE7C501B4011D
:102550000E94101681110DC02FEF3FEF4FE75FE78C
:10256000C501B4010E94001418161CF486E791E01E
:10257000D2CF2FEF3FEF4FE75FE4C701B6010E94D4
:10258000581518161CF48AE791E0C5CF2FEF3FEFDE
:102590004FE75FECC701B6010E94001487FDF3CF3F
:1025A00020E030E0A901C701B6010E94001487FFB6
:1025B00009C06DE28FE991E00E948F03F7FAF09471
:1025C000F7F8F0942AE037ED43EA5BE3C701B60180
:1025D0000E9494134B015C010E9477146B017C01F3
:1025E0000E94A6149B01AC01C501B4010E94931383
:1025F0004B015C014AE0C701B6010E94EB056EE2A7
:102600008FE991E00E948F0320E030E040E251E446
:10261000C501B4010E945D154B015C010E94771455
:102620006B01F12CE12C4AE0C701B6010E94EB05D9
:10263000C701B6010E94A6149B01AC01C501B401FB
:102640000E94931320E030E040E251E40E945D15C7
:102650000E94771490E080E04AE00E94EB055DCF95
:10266000052E97FB1EF400940E94471357FD07D0D8
:102670000E94621307FC03D04EF40C94471350954C
:102680004095309521953F4F4F4F5F4F089590955E
:102690008095709561957F4F8F4F9F4F08950E9451
:1026A0008413A59F900DB49F900DA49F800D911D44
:1026B00011240895B7FF0C944F130E944F13821BEF
:1026C000930B0895A1E21A2EAA1BBB1BFD010DC09E
:1026D000AA1FBB1FEE1FFF1FA217B307E407F507D2
:1026E00020F0A21BB30BE40BF50B661F771F881FAE
:1026F000991F1A9469F760957095809590959B0144
:10270000AC01BD01CF010895A29FB001B39FC001EC
:10271000A39F700D811D1124911DB29F700D811D0D
:102720001124911D08955058BB27AA270E94AB136E
:102730000C941E150E94101538F00E94171520F0F9
:1027400039F49F3F19F426F40C940D150EF4E0951E
:10275000E7FB0C940715E92F0E942F1558F3BA17C1
:10276000620773078407950720F079F4A6F50C94A7
:1027700051150EF4E0950B2EBA2FA02D0B01B901C7
:1027800090010C01CA01A0011124FF27591B99F0E7
:10279000593F50F4503E68F11A16F040A22F232FF3
:1027A000342F4427585FF3CF469537952795A79543
:1027B000F0405395C9F77EF41F16BA0B620B730BEA
:1027C000840BBAF09150A1F0FF0FBB1F661F771F5B
:1027D000881FC2F70EC0BA0F621F731F841F48F410
:1027E000879577956795B795F7959E3F08F0B0CF99
:1027F0009395880F08F09927EE0F97958795089580
:102800000E94E31408F481E008950E9419140C94C6
:102810001E150E94171558F00E94101540F029F45B
:102820005F3F29F00C94071551110C9452150C942C
:102830000D150E942F1568F39923B1F3552391F3D9
:10284000951B550BBB27AA2762177307840738F01F
:102850009F5F5F4F220F331F441FAA1FA9F335D07C
:102860000E2E3AF0E0E832D091505040E695001C30
:10287000CAF72BD0FE2F29D0660F771F881FBB1FEA
:10288000261737074807AB07B0E809F0BB0B802DC8
:10289000BF01FF2793585F4F3AF09E3F510578F0F4
:1028A0000C9407150C9452155F3FE4F3983ED4F353
:1028B000869577956795B795F7959F5FC9F7880FC8
:1028C000911D9695879597F90895E1E0660F771F1A
:1028D000881FBB1F621773078407BA0720F0621BAB
:1028E000730B840BBA0BEE1F88F7E09508950E94D6
:1028F000371588F09F5798F0B92F9927B751B0F046
:10290000E1F0660F771F881F991F1AF0BA95C9F773
:1029100014C0B13091F00E945115B1E008950C94AB
:102920005115672F782F8827B85F39F0B93FCCF35E
:10293000869577956795B395D9F73EF490958095F0
:10294000709561957F4F8F4F9F4F0895E89409C010
:1029500097FB3EF490958095709561957F4F8F4FD2
:102960009F4F9923A9F0F92F96E9BB279395F695E8
:10297000879577956795B795F111F8CFFAF4BB0F66
:1029800011F460FF1BC06F5F7F4F8F4F9F4F16C0CA
:10299000882311F096E911C0772321F09EE8872F54
:1029A000762F05C0662371F096E8862F70E060E010
:1029B0002AF09A95660F771F881FDAF7880F969589
:1029C000879597F90895990F0008550FAA0BE0E82D
:1029D000FEEF16161706E807F907C0F012161306E1
:1029E000E407F50798F0621B730B840B950B39F421
:1029F0000A2661F0232B242B252B21F408950A2687
:102A000009F4A140A6958FEF811D811D089597F9C6
:102A10009F6780E870E060E008959FEF80EC089584
:102A200000240A94161617061806090608950024AD
:102A30000A9412161306140605060895092E039427
:102A4000000C11F4882352F0BB0F40F4BF2B11F49B
:102A500060FF04C06F5F7F4F8F4F9F4F089557FDFA
:102A60009058440F551F59F05F3F71F04795880FFC
:102A700097FB991F61F09F3F79F087950895121693
:102A800013061406551FF2CF4695F1DF08C016163F
:102A900017061806991FF1CF8695710561050894F0
:102AA0000895E894BB2766277727CB0197F9089507
:102AB0000E94E31408F48FEF08950E9470150C949F
:102AC0001E150E94101538F00E94171520F095234E
:102AD00011F00C9407150C940D1511240C9452153B
:102AE0000E942F1570F3959FC1F3950F50E0551F6D
:102AF000629FF001729FBB27F00DB11D639FAA2753
:102B0000F00DB11DAA1F649F6627B00DA11D661FA1
:102B1000829F2227B00DA11D621F739FB00DA11DC2
:102B2000621F839FA00D611D221F749F3327A00D7C
:102B3000611D231F849F600D211D822F762F6A2F18
:102B400011249F5750409AF0F1F088234AF0EE0F7D
:102B5000FF1FBB1F661F771F881F91505040A9F7AA
:102B60009E3F510580F00C9407150C9452155F3F61
:102B7000E4F3983ED4F3869577956795B795F795E6
:102B8000E7959F5FC1F7FE2B880F911D969587955E
:102B900097F9089519F416F40C940D150C94151664
:102BA0000E943715B8F39923C9F3B6F39F57550B15
:102BB00087FF0E9423160024A0E640EA9001805877
:102BC0005695979528F4805C660F771F881F20F034
:102BD00026173707480730F4621B730B840B202934
:102BE00031294A2BA69517940794202531254A2789
:102BF00058F7660F771F881F20F0261737074807FA
:102C000030F4620B730B840B200D311D411DA09518
:102C100081F7B901842F9158880F9695879508956B
:102C20000E94E314880B990B08959F3F31F0915057
:102C300020F4879577956795B795880F911D9695A0
:102C4000879597F9089591505040660F771F881F18
:102C5000D2F70895DB018F939F930E944F13BF918A
:102C6000AF91A29F800D911DA39F900DB29F900DDB
:102C7000112408950E948413B7FF0895821B930BBB
:102C80000895EE0FFF1F0590F491E02D0994F8943C
:022C9000FFCF74
:102C92000000010002803E8000000003314E6F649C
:102CA2006500324E6F646500334E6F646500344ECA
:102CB2006F646500354E6F646500364E6F64650063
:102CC2000101000166668640000000008F03EF02EA
:102CD2001C03DC034D032B033F030D0A00737461D5
:102CE20072745F73657475700073746172745F726D
:102CF2006164696F006D705F6C6F77006D705F6803
:0E2D020069006E616E00696E66006F76660095
:00000001FF
