:100000000C94D9000C9495060C9470060C94010184
:100010000C9401010C9401010C94BA060C9401019A
:100020000C9401010C9401010C9401010C94010148
:100030000C9401010C9401010C9401010C94010138
:100040000C9419060C9401010C94E7050C94C1055D
:100050000C9401010C9401010C9401010C94010118
:100060000C9401010C9401010A0B0C0D0E0F000100
:10007000020304050000000000000000010101016E
:10008000010101010202020202020203030303034F
:100090000404040505050505060606060707070806
:1000A00008080808090A0A0A0A0B0B0C0C0C0C0DAC
:1000B0000D0D0E0E0F0F0F1011111111121213143E
:1000C0001414141516161717171819191A1A1B1BBA
:1000D0001C1C1D1E1E1F1F20212122232324252519
:1000E0002626272829292A2B2C2D2D2E2F2F30315B
:1000F000323334353636373838393A3B3C3D3E3F7B
:10010000404142434445454647494A4B4C4D4E4F7A
:1001100050515254555657595A5B5D5E5F6061624B
:1001200064656667696A6C6D6E6F717375767779F1
:100130007A7B7C7F808283858688898B8C8F919265
:10014000939497999A9C9E9FA2A3A5A7A9ABADAEA5
:10015000B0B3B4B6B9BABCBEC0C2C4C7C9CACDCFA9
:10016000D1D3D6D8DADCDFE1E2E6E7EBECF0F1F56B
:10017000F6FAFBFF00000000240027002A00000020
:100180000000250028002B000404040404040404D7
:100190000202020202020303030303030102040832
:1001A00010204080010204081020010204081020E1
:1001B000C90611241FBECFEFD4E0DEBFCDBF11E0D2
:1001C000A0E0B1E0ECE7FBE202C005900D92A2379F
:1001D000B107D9F724E0A2E7B1E001C01D92A63A29
:1001E000B207E1F710E0C9EDD0E004C02197FE01AD
:1001F0000E94B615C83DD107C9F70E94E5070C94C7
:10020000BC150C9400004F925F926F927F928F9278
:100210009F92AF92BF92CF92DF92EF92FF920F9395
:100220001F93CF93DF9300D01F92CDB7DEB780919D
:10023000A104E0919904F0919A049081982B9093F5
:10024000A3049081809589238093A404F090900466
:10025000F0929104009197041091980401151105F2
:1002600009F4AAC0E0EBF2E020E934E0412C512C83
:100270003201CF2CD12CA6014F5F5F4F819191911C
:10028000A92FBB27A87FBB27A49FB001A59F700DF6
:10029000B49F700D1124672F7727460E571E611CDF
:1002A000711CDC0163E0B695A7956A95E1F7AC7F18
:1002B000BB27A49FB001A59F700DB49F700D1124A2
:1002C000672F7727460E571E611C711CB3E0880FFD
:1002D000991FBA95E1F79927849FB001859F700D0A
:1002E000949F700D1124672F7727460E571E611CAF
:1002F000711C2E173F0711F6552777FC5A95472D8D
:10030000362D252DA091AC02B091AD020E94CF12E6
:1003100023E030E040E050E00E94A51229013A01BC
:10032000A091AE02B091AF02411451046104710476
:1003300009F440C020EF30E00E94AF1528EE33E012
:1003400040E050E00E94A51253014201820E931E2C
:10035000A41EB51EC801012E000CAA0BBB0B8816EB
:100360009906AA06BB0634F1B801621B730B072E6F
:10037000000C880B990B0E941D144B015C01B60107
:10038000DD0C880B990B0E941D149B01AC01C5016B
:10039000B4010E94D2146B017C01C301B2010E941E
:1003A0001D149B01AC01C701B6010E947A130E9483
:1003B000EC13F62EF0929104E0EBF2E060E974E0C9
:1003C0008E010C5F1F4F219131918091910490E03B
:1003D0000196432F5527487F5527489FD001499FB5
:1003E000B00D589FB00D1124BA83A901A3E0569512
:1003F0004795AA95E1F74C7F5527489FD001499F23
:10040000B00D589FB00D1124B983B3E0220F331FF4
:10041000BA95E1F73327289FA001299F500D389FF7
:10042000500D11245B838FB78093A504F8945091ED
:10043000A304F090A404C0909904D0909A04CE0133
:100440000196DC012D91CD01D60138E05C9327FFA8
:10045000FC92220F43E04A95F1F70000FC923A9596
:10046000A9F70817190769F78091A5048FBF6E17C0
:100470007F0709F0A8CF0F900F900F90DF91CF91D9
:100480001F910F91FF90EF90DF90CF90BF90AF90B2
:100490009F908F907F906F905F904F900895482F1E
:1004A000E62F282F30E0863009F459C000F583305C
:1004B000E1F1853009F44FC04830E0F14E3010F1E1
:1004C000443108F063C02E50310981E090E0A0E093
:1004D000B0E004C0880F991FAA1FBB1F2A95D2F74E
:1004E00028B1EE2309F44FC0822B88B908958A30D1
:1004F000C9F18B30D9F18930F9F6809180008F777E
:10050000809380002850310981E090E0A0E0B0E0C5
:1005100004C0880F991FAA1FBB1F2A95D2F7E111AB
:100520002EC025B1809582232CC09091B0009F7D74
:100530009093B00081E090E0A0E0B0E004C0880FAC
:10054000991FAA1FBB1F4A95D2F72BB1EE23A1F02A
:10055000822B8BB9089594B59F7D94BDEBCF94B554
:100560009F77FBCF809180008F7DCACF8091B000B4
:100570008F778093B000C6CF80958223EACF25B1D4
:10058000822B85B9089580958223AFCF089510926C
:100590007A0280917D02882341F060915A0281E0C5
:1005A0006827809159020C944F020895682F80911A
:1005B00038020E944F028091500290915102823085
:1005C000910538F0880F991F880F991F059701979B
:1005D000F1F7089581E00C94D602AF92BF92CF92CA
:1005E000DF92EF92FF920F931F93CF93DF936C01F3
:1005F0007B018B01040F151FEB015E01AE18BF08D4
:10060000C017D10759F06991D601ED91FC91019085
:10061000F081E02DC6010995892B79F7C501DF919D
:10062000CF911F910F91FF90EF90DF90CF90BF90EF
:10063000AF900895FC01538D448D252F30E0842F19
:1006400090E0821B930B541710F0CF9608950197FA
:100650000895FC01918D828D981761F0A28DAE0FE7
:10066000BF2FB11D5D968C91928D9F5F9F73928F6E
:1006700090E008958FEF9FEF0895FC01918D828D9A
:10068000981731F0828DE80FF11D858D90E0089567
:100690008FEF9FEF0895FC01918D228D892F90E0BF
:1006A000805C9F4F821B91098F739927089586E97B
:1006B00091E00E944B0321E0892B09F420E0822F76
:1006C000089580E090E0892B29F00E945703811162
:1006D0000C9400000895FC01A48DA80FB92FB11D42
:1006E000A35ABF4F2C91848D90E001968F73992768
:1006F000848FA689B7892C93A089B1898C91837046
:1007000080648C93938D848D981306C00288F3893E
:10071000E02D80818F7D80830895EF92FF920F936B
:100720001F93CF93DF93EC0181E0888F9B8D8C8D9D
:1007300098131AC0E889F989808185FF15C09FB791
:10074000F894EE89FF896083E889F9898081837054
:10075000806480839FBF81E090E0DF91CF911F9103
:100760000F91FF90EF900895F62E0B8D10E00F5F24
:100770001F4F0F731127E02E8C8D8E110CC00FB6FA
:1007800007FCFACFE889F989808185FFF5CFCE0192
:100790000E946B03F1CFEB8DEC0FFD2FF11DE35A9F
:1007A000FF4FF0829FB7F8940B8FEA89FB89808115
:1007B0008062CFCFCF93DF93EC01888D8823B9F08F
:1007C000AA89BB89E889F9898C9185FD03C080815C
:1007D00086FD0DC00FB607FCF7CF8C9185FFF2CFD9
:1007E000808185FFEDCFCE010E946B03E9CFDF91C1
:1007F000CF9108953FB7F894809177019091780157
:10080000A0917901B0917A0126B5A89B05C02F3F30
:1008100019F00196A11DB11D3FBFBA2FA92F982F26
:100820008827BC01CD01620F711D811D911D42E021
:10083000660F771F881F991F4A95D1F708958F92E9
:100840009F92AF92BF92CF92DF92EF92FF926B0195
:100850007C010E94FA034B015C010E94FA036819B3
:1008600079098A099B09683E734081059105A8F3BF
:1008700081E0C81AD108E108F10828EE820E23E0D1
:10088000921EA11CB11CC114D104E104F10429F78A
:10089000FF90EF90DF90CF90BF90AF909F908F90A0
:1008A00008952FB7F894609173017091740180914D
:1008B0007501909176012FBF08958EBD00000DB493
:1008C00007FEFDCF8EB5089590938802809387022E
:1008D00020917A02211139C090938402809383027F
:1008E000009711F1BC0190E080E00E941B149B0175
:1008F000AC0160E070E080E090E40E947A130E9416
:10090000451520E03AE045E259E40E94D2140E94E5
:10091000EC1360938B0270938C0280938D02909302
:100920008E0210927C020895809170029091710263
:10093000A0917202B091730280938B0290938C020B
:10094000A0938D02B0938E02ECCF81E080937C0265
:1009500008950F931F9300913A0210913B0220914A
:100960003C0230913D0240E052E16AE770E080E0F5
:10097000041715072607370740F4769567955795AE
:1009800047958F5F8630A1F787E0982F906A9695FC
:10099000809581709CBD8DBD80E01F910F910C945E
:1009A000D602CF93C82F0E94A9048C2F80620E9488
:1009B0005D0480933E02CF910C94EA02CF93C82F3E
:1009C0000E94A9048C2F0E945D0480933E028FEF49
:1009D0000E945D04C82F0E94EA028C2FCF910895D7
:1009E000FF920F931F93CF93DF93C82FF62E072FFD
:1009F000142F0E94A9048C2F80620E945D048093B2
:100A00003E02CF2DD02F115020F089910E945D041D
:100A1000FACFDF91CF911F910F91FF900C94EA02D2
:100A20000E94A90480E50E945D0480933E0283E752
:100A30000E945D040C94EA02CF93DF93D82FC62F57
:100A40000E94A9048D2F80620E945D0480933E0263
:100A50008C2F0E945D04DF91CF910C94EA0260918B
:100A6000450261FD0AC062606093450280E00E9419
:100A70001C058BE19EE40197F1F70895FC010190BC
:100A80000020E9F73197AF01481B590BBC0186E9FB
:100A900091E00C94ED028F929F92AF92BF920F93D0
:100AA0001F93CF93DF93CDB7DEB7A1970FB6F8941E
:100AB000DEBF0FBECDBF19A2423008F44AE08E015E
:100AC0000F5D1F4F842E912CB12CA12CA5019401F8
:100AD0000E94D712E62FB901CA01EA30F4F4E05DB2
:100AE000D801EE938D01232B242B252B79F790E051
:100AF00080E0109719F0CD010E943E05A1960FB637
:100B0000F894DEBF0FBECDBFDF91CF911F910F9143
:100B1000BF90AF909F908F900895E95CE1CFCF9206
:100B2000DF92EF92FF92CF93DF936C01990FEE0863
:100B3000FF08F7FE1FC06DE286E991E00E948D0379
:100B4000EC0166277727CB016C197D098E099F0977
:100B50004AE00E944B05C80FD91F8AE491E00E9429
:100B60003E058C0F9D1FDF91CF91FF90EF90DF909E
:100B7000CF9008954AE0C701B6010E944B05EC01F1
:100B8000ECCF1F920F920FB60F9211242F933F9329
:100B90004F935F936F937F938F939F93AF93BF9385
:100BA000EF93FF9386E991E00E946B03FF91EF9131
:100BB000BF91AF919F918F917F916F915F914F9175
:100BC0003F912F910F900FBE0F901F9018951F927D
:100BD0000F920FB60F9211242F938F939F93EF9341
:100BE000FF93E091A601F091A7018081E091AC0113
:100BF000F091AD0182FD1BC090818091AF018F5FAC
:100C00008F732091B001821741F0E091AF01F0E0C5
:100C1000EA56FE4F958F8093AF01FF91EF919F9120
:100C20008F912F910F900FBE0F901F90189580817C
:100C3000F4CF1F920F920FB60F9211248F939F93B0
:100C4000AF93BF938091730190917401A09175014E
:100C5000B09176010196A11DB11D8093730190930F
:100C60007401A0937501B09376018091720193E0B5
:100C7000980F9D37F0F490937201809177019091D5
:100C80007801A0917901B0917A010196A11DB11D61
:100C90008093770190937801A0937901B0937A01C2
:100CA000BF91AF919F918F910F900FBE0F901F90AA
:100CB00018958A5780937201809173019091740105
:100CC000A0917501B09176010196A11DB11D80938F
:100CD000730190937401A0937501B0937601CDCF09
:100CE0001F920F920FB60F9211242F933F934F93A1
:100CF0005F936F937F938F939F93AF93BF93EF9384
:100D0000FF93F0E0E0E00995FF91EF91BF91AF9183
:100D10009F918F917F916F915F914F913F912F9113
:100D20000F900FBE0F901F9018951F920F920FB645
:100D30000F9211242F933F934F935F936F937F9361
:100D40008F939F93AF93BF93EF93FF93F0E0E0E017
:100D50000995FF91EF91BF91AF919F918F917F91F5
:100D60006F915F914F913F912F910F900FBE0F9018
:100D70001F9018951F920F920FB60F9211248F9308
:100D800081E080937C018F910F900FBE0F901F9098
:100D900018951F93CF93DF93E6E9F1E01382128257
:100DA00088EE93E0A0E0B0E084839583A683B783C8
:100DB0008CE391E09183808385EC90E09587848734
:100DC00084EC90E09787868780EC90E0918B808B15
:100DD00081EC90E0938B828B82EC90E0958B848BFE
:100DE00086EC90E0978B868B118E128E138E148E6C
:100DF000ACEAB2E08EE290E011969C938E9380ED87
:100E000097E013969C938E93129782E380939004BD
:100E1000809391041092920410929304109294047F
:100E200010929504109296041092980410929704D0
:100E30008FB78093A504E3EAF1E024912093A10405
:100E40008FE891E0FC013491E32FF0E0EE0FFF1FFB
:100E5000E258FE4F4591549150939A04409399045F
:100E6000FC018491E82FF0E0EE0FFF1FEC58FE4FDD
:100E7000C591D491D0939C04C0939B04E881E22B4C
:100E8000E8838EE190E011969C938E9384E992E042
:100E900013969C938E931297C4E5D2E01882198220
:100EA0001A821B8211E01C838FEF8D831E821F82AA
:100EB000188619861B861A861D861C86399AE7E9CC
:100EC000F1E0E491F0E0EE0FFF1FE258FE4F859154
:100ED00094919F878E87EBEAF1E0E491EA8B3A9A4E
:100EE000E8E9F1E0E491F0E0EE0FFF1FE258FE4F79
:100EF00085919491998B888BECEAF1E0E491EB8BEE
:100F000081E18D833B9A1C8A1D8A1E8A1F8A80E19B
:100F100097E2A0E0B0E0888F998FAA8FBB8F8C8F6B
:100F20009D8FAE8FBF8F18A219A21AA21BA21EA25C
:100F30001FA218A619A61EA61092A7021092A80218
:100F40001092A9021092AA021092AB0220E330E0A4
:100F50003DA32CA38AA79BA7ACA7BDA784E690E0DE
:100F60009AAB89AB8FA598A90E94640418A688EC57
:100F700090E00E946404E4E3F2E089E090E093836F
:100F800082838AE090E09583848380E896E9A8E9EB
:100F9000B0E086839783A087B18780E28387128A37
:100FA000138A85E0858B168B85E090E0A0E0B0E0A9
:100FB000848F958FA68FB78F83E392E09183808390
:100FC0001486DF91CF911F910895CF93DF93CDB712
:100FD000DEB769970FB6F894DEBF0FBECDBFF894A9
:100FE00082E880937A0023E024BD25BD80916E00C5
:100FF000816080936E0031E0309380008BE08093BD
:1010000081003093B00084E08093B1001092C10061
:1010100078948FEF9FEF90938E0180938D01E4E79A
:10102000F0E0E491E0939004529A439A61E082E008
:101030000E944F0243E040933001E091A601F091FD
:10104000A70182E08083E091A601F091A7011082C0
:10105000E091A201F091A3011082E091A401F0912E
:10106000A50180E180831092AE01E091AA01F09188
:10107000AB0186E08083E091A801F091A901808115
:1010800080618083E091A801F091A901808188604E
:101090008083E091A801F091A9018081806880831C
:1010A000E091A801F091A90180818F7D80838DE47A
:1010B00091E00E943E058AE491E00E943E0551E0E5
:1010C0005093580282E896E0A0E0B0E080936C0272
:1010D00090936D02A0936E02B0936F0283E08093B1
:1010E0007A0280917D02882331F060915A028091CA
:1010F00059020E944F0260915A0281E06827809154
:1011000059020E944F029FB79983F89480917B0106
:1011100081111EC0E2E9F1E08491E6EAF1E09491E8
:10112000E82FF0E0EE0FFF1FEC58FE4FA591B491B1
:10113000EC91E92321F461E08AE00E944F02229AB7
:101140008CB580618CBD8CB580648CBD259A239A4A
:1011500080917B018F5F80937B01A981AFBF8091DC
:101160003602909137028F3F980709F4ACC0209166
:101170003802309139022F3F320709F4A4C0821798
:10118000930761F1883008F0B9C25AB1C12CD12C53
:101190007601C394082E04C0CC0CDD1CEE1CFF1C91
:1011A0000A94D2F7452F4C294AB9283008F0D1C209
:1011B0005AB1C12CD12C7601C394022E04C0CC0CA0
:1011C000DD1CEE1CFF1C0A94D2F7452F4C294AB9AE
:1011D0008217930719F060E00E944F0281E00E949D
:1011E000D60265E070E080E090E00E941F046FE5A9
:1011F00084E00E941C0585E590E0A0E0B0E08093CB
:101200004C0290934D02A0934E02B0934F0267E0C0
:1012100086E00E941C058DE10E94DE0489830E9405
:1012200010058DE10E94DE0491E0F981F81390E051
:1012300090934602882349F02981281302C00E9416
:10124000100560E08DE10E941C051092480260E0EC
:101250008CE10E941C0510924A026FE381E00E941B
:101260001C0563E082E00E941C0580E280933F023F
:1012700031E1398360913F0289810E941C054981D7
:101280004F5F49834731B1F763E083E00E941C055B
:1012900085E0809349026CE40E941C0560E787E0CA
:1012A0000E941C0582EE0E94D10481EE0E94D104AE
:1012B0006CE080E00E941C0580E00E94DE048093C8
:1012C00045020E942F056FE381E00E941C056FE03C
:1012D00084E00E941C0580914802811115C08DE1B7
:1012E0000E94DE04682F66608DE10E941C058CE17F
:1012F0000E94DE04682F63608CE10E941C0581E07F
:1013000080934A028093480280E280933F0251E139
:10131000598360913F0289810E941C0589818F5FFA
:1013200089838731B1F7409149026CE071E08AE02E
:101330000E94F004409149026CE071E080E10E945B
:10134000F004E9E6F0E08491409149026CE071E03C
:101350000E94F00482E00E94DE04EFE6F0E0E491F7
:1013600061E070E001C0660FEA95EAF7682B82E061
:101370000E941C0568E685E00E941C0586E00E942C
:10138000DE04682F676086E00E941C0586E00E94EC
:10139000DE0445E550E060E070E040934C0250937D
:1013A0004D0260934E0270934F02682F677D86E076
:1013B0000E941C0586E00E94DE0489E591E00E94FF
:1013C0003E058AE491E00E943E050E942F050E949E
:1013D0002F056091450261606093450280E00E94A4
:1013E0001C0560E787E00E941C0580913602909101
:1013F000370220913802309139028217930719F091
:1014000061E00E944F0280914702882309F4CDC118
:101410004091490260E472E08AE00E94F004109278
:101420007C010E94FA036B0188E198E00FB6F89402
:10143000A895809360000FBE90936000809160003B
:10144000806480936000A89580917C018823E1F3FB
:101450000FB6F894A8958091600088618093600031
:10146000109260000FBE0E94FA036C197D09709300
:1014700006016093050184E080930401109203014A
:10148000E89868EC70E080E090E00E941F04F0E9CA
:101490002F2EF4E03F2E80917A02882309F480C039
:1014A0000E94FA03009168021091690220916A0279
:1014B00030916B026B017C01C01AD10AE20AF30A77
:1014C00000916C0210916D0220916E0230916F02BA
:1014D000C016D106E206F30608F462C06093680203
:1014E0007093690280936A0290936B0280917A02F2
:1014F000882309F455C020915802422F022E000C77
:10150000550B660B770B8091540290915502A09178
:101510005602B0915702840F951FA61FB71F8093E4
:10152000540290935502A0935602B09357028091B3
:101530005C022817A1F020935C02E0916402F09114
:10154000650281E012160CF080E090915B02891731
:1015500009F440C1809167029081892B808380913A
:101560006602E0916202F09163029081892B808390
:101570008BE090E00197F1F780916602E0916202C2
:10158000F0916302908180958923808320917A0273
:10159000213030F0233008F423C1243009F422C470
:1015A00020919301309194013A83298320919501F0
:1015B00030E0A981BA810E94AF1528EE33E040E007
:1015C00050E00E94A512690130939201209391018D
:1015D00080919001823009F4A2C408F090C488235D
:1015E00009F496C4813009F496C480918F0181304A
:1015F00009F4A2C408F49BC4823009F4A4C4833063
:1016000009F4A8C480913701811129C080918B0110
:1016100090918C01019719F529813A81273E334039
:10162000F4F4F601FF27EC58FF4FE491E0939004A7
:1016300080918D0190918E01E0EBF2E08193919386
:101640002E163F06D9F70E94030189819A810196DF
:101650009093940180939301C6010E948F0580911D
:101660003701882381F180918B0190918C01019742
:1016700051F5A0919301B0919401BA83A983129777
:1016800014F10091910110919201F801FF27EC589B
:10169000FF4FE491E093900480918D0190918E0131
:1016A000E0EBF2E0819391932E163F06D9F70E946A
:1016B0000301E981FA813197F0939401E09393015A
:1016C000C8010E948F0580918B0190918C01029737
:1016D00009F074C480919301909194012091350197
:1016E00030913601181619060CF43BC4319521953A
:1016F0003109309336012093350138C48E3098F487
:1017000054B1A82FA850BB0BC12CD12C7601C39487
:1017100004C0CC0CDD1CEE1CFF1CAA95D2F7452F93
:101720004C2944B942CD843108F03FCD57B1E82F60
:10173000EE50FF0BC12CD12C7601C39404C0CC0C0D
:10174000DD1CEE1CFF1CEA95D2F7452F4C2947B94A
:101750002CCD2E30A0F454B1A22FA850BB0BBD014C
:10176000C12CD12C7601C39404C0CC0CDD1CEE1C22
:10177000FF1C6A95D2F7452F4C2944B929CD243155
:1017800008F026CD57B1E22FEE50FF0BC12CD12C23
:101790007601C39404C0CC0CDD1CEE1CFF1CEA9542
:1017A000D2F7452F4C2947B913CD82E00E94DE04C1
:1017B000EEE6F0E0E49121E030E001C0220FEA958E
:1017C000EAF72095622F682382E00E941C051092A0
:1017D000470225CE80916702908180958923BECEF5
:1017E0004091A3025091A4026091A5027091A602BB
:1017F0004A015B019FEF891A990AA90AB90A8092E6
:10180000A3029092A402A092A502B092A602809197
:10181000970290919802A0919902B0919A0288162D
:101820009906AA06BB060CF059C0C0908F02D09052
:101830009002E0909102F0909202C701B601660F0B
:10184000771F881F991F00919F021091A00220917D
:10185000A1023091A202080D191D2A1D3B1DA901EC
:101860009801E2E0220F331F441F551FEA95D1F77C
:101870002F5F3F4F4F4F5F4F0E94D712C21AD30ABC
:10188000E40AF50AC0928F02D0929002E09291028F
:10189000F0929202FAE0F694E794D794C794FA95FE
:1018A000D1F78091700290917102A0917202B09173
:1018B0007302C816D906EA06FB0628F180918B024E
:1018C00090918C02A0918D02B0918E02C816D9061B
:1018D000EA06FB06C0F4D701C60115C080919B0241
:1018E00090919C02A0919D02B0919E02881699064B
:1018F000AA06BB068CF48091700290917102A091AF
:101900007202B091730280936C0290936D02A09367
:101910006E02B0936F0244CE809193029091940234
:10192000A0919502B091960288169906AA06BB0668
:1019300054F5C0908F02D0909002E0909102F09008
:10194000920226013701440C551C661C771C88192D
:101950009909AA09BB094C015D0102E0880C991C98
:10196000AA1CBB1C0A95D1F7A50194012F5F3F4F1C
:101970004F4F5F4FC301B2010E94D712C20ED31E58
:10198000E41EF51E7FCF8091AB02882309F423C2A9
:101990000E94C7028090A7029090A802A090A9027E
:1019A000B090AA0280918202882331F00E94C7027F
:1019B000A1E0A0937B02F4CD80917C02882311F1F9
:1019C00020917E0230917F024091800250918102ED
:1019D000209370023093710240937202509373020D
:1019E00060E472E48FE090E00E94D71230938602A8
:1019F0002093850280918702909188020E9464045E
:101A000010927C028092740290927502A0927602EB
:101A1000B092770240905402509055026090560266
:101A20007090570284149504A604B70409F4BECF3D
:101A30001092AB0275016401C418D508E608F708D6
:101A4000F7FE08C0F094E094D094C094C11CD11C5F
:101A5000E11CF11CC0929302D0929402E092950294
:101A6000F0929602481459046A047B040CF045C1B4
:101A7000B1E0BD8BF0917A02F98FFF2309F440C1E8
:101A800020916C0230916D0240916E0250916F0274
:101A900060E472E48FE090E00E94D71229833A83D9
:101AA0004B835C8329813A814B815C81CA01B901F6
:101AB0000E949F1569877A878B879C870091830294
:101AC00010918402980150E040E02D873E874F87B7
:101AD000588B220F331F441F551F298B3A8B4B8B7A
:101AE0005C8B0E94A5122D833E834F835887C216BC
:101AF000D306E406F50644F0398D332389F180914D
:101B000058024D89841761F151E05093AB028092E5
:101B1000A7029092A802A092A902B092AA02A09154
:101B200058020A2E000CBB0B2D813E814F81588537
:101B30000E94CF12640D751D861D971D609374025F
:101B4000709375028093760290937702DA01C9014F
:101B50008093930290939402A0939502B09396027F
:101B60008091700290917102A0917202B091730203
:101B7000C0909302D0909402E0909502F09096026B
:101B8000012B09F40DC1803EE3E99E07E4E0AE07B6
:101B9000B10508F005C1A0918502B09186029D01B2
:101BA0000E94F9124B015C0169857A858B859C85C1
:101BB0002D853E854F8558890E94A5122D8B3E8B21
:101BC0004F8B588FC501B4012D853E854F855889AF
:101BD0000E94A5128D899E89AF89B88DB595A7956C
:101BE00097958795281B390B4A0B5B0BC216D306BA
:101BF000E406F5060CF0A7C08091AB02882309F437
:101C000084C010929702109298021092990210923A
:101C10009A028091970290919802A0919902B091B6
:101C20009A0280939B0290939C02A0939D02B09392
:101C30009E028D819E81AF81B88580939F02909393
:101C4000A002A093A102B093A20229813A814B8104
:101C50005C81232B242B252B81F480918B02909186
:101C60008C02A0918D02B0918E0280936C029093B1
:101C70006D02A0936E02B0936F0280916C029091FE
:101C80006D02A0916E02B0916F021AE0880F991F49
:101C9000AA1FBB1F1A95D1F780938F0290939002D1
:101CA000A0939102B09392021092A3021092A40208
:101CB0001092A5021092A602809174029091750272
:101CC000A0917602B0917702481659066A067B0603
:101CD0000CF07FC081E08093580231E030937A02AB
:101CE00080917D02882331F060915A0280915902DF
:101CF0000E944F0210927B0253CCEFEFED8BBACED5
:101D000019821A821B821C82CDCED701C601B595DD
:101D1000A79597958795CD88DE88EF88F88C22E087
:101D2000F594E794D794C7942A95D1F78C199D0917
:101D3000AE09BF098093970290939802A0939902ED
:101D4000B0939A0266CFC501B40129853A854B85C7
:101D50005C85621B730B840B950B29893A894B892F
:101D60005C890E94A51220939702309398024093B9
:101D7000990250939A02C501B40129893A894B8985
:101D80005C890E94A512C21AD30AE40AF50AC0921D
:101D90009B02D0929C02E0929D02F0929E0249CF5B
:101DA00010929F021092A0021092A1021092A20221
:101DB00010929702109298021092990210929A0231
:101DC000C0929B02D0929C02E0929D02F0929E02F1
:101DD0004CCF8FEF80CF213011F420937B020E94F3
:101DE000C702DECB4091890250918A0241505109CD
:101DF0005A83498350938A0240938902C0908F028C
:101E0000D0909002E0909102F0909202C701B6014A
:101E1000660F771F881F991F9A01550F440B550BAA
:101E2000E2E0220F331F441F551FEA95D1F72F5FC1
:101E30003F4F4F4F5F4F0E94D712C20ED31EE41E7A
:101E4000F51EC0928F02D0929002E0929102F09221
:101E50009202FAE0F694E794D794C794FA95D1F7F2
:101E60008091700290917102A0917202B091730200
:101E7000C816D906EA06FB0678F080918B0290918D
:101E80008C02A0918D02B0918E02C816D906EA0686
:101E9000FB0610F4D701C60180936C0290936D028B
:101EA000A0936E02B0936F020091540210915502FC
:101EB0002091560230915702409174025091750260
:101EC000609176027091770204171507260737078D
:101ED00009F485CFE981FA811E161F060CF07FCF29
:101EE00040918B0250918C0260918D0270918E0214
:101EF00084179507A607B70708F071CF51CB833039
:101F000091F0843009F071CB56EE509395016DCB72
:101F1000109295016ACB8EE18093950166CB36E4F1
:101F20003093950162CB46E9409395015ECB1092C8
:101F30008E0110928D0166CB8FEF9FEF90938E01F3
:101F400080938D015FCBAFE1B0E0B0938E01A093A1
:101F50008D0158CBE0E0F8EFF0938E01E0938D0116
:101F600051CB883EF3E09F070CF0C0CB209191014C
:101F7000309192013A832983F901FF27EC58FF4FF2
:101F8000E491E093900420918D0130918E01E0EB7B
:101F9000F2E0219331932E163F06D9F720913501B7
:101FA00030913601820F931F909394018093930197
:101FB0000E94030189819A810E948F050E94510429
:101FC00000918701109188012091890130918A0147
:101FD000601B710B820B930B60387E4E864391051C
:101FE00050F00E94510460938701709388018093A0
:101FF000890190938A010E945104C0908301D0907E
:102000008401E0908501F09086016C197D098E09AC
:102010009F09603E7E428105910520F060E084E0EA
:102020000E944F020E9451046C197D098E099F097C
:10203000603770438105910570F061E084E00E9493
:102040004F020E9451046093830170938401809336
:102050008501909386010E94510460337547810584
:10206000910508F449C00E94510480913001B0E408
:102070008B9FC001112480937C0080917A00806442
:1020800080937A0080917A0086FDFCCFE091780001
:10209000F0917900FA83E983BF01FF0F880B990B58
:1020A0000E941D142AE037ED43EA5BE30E94D2143C
:1020B0006093310170933201809333019093340126
:1020C00089819A810E948F05C0903101D0903201A0
:1020D000E0903301F0903401A7019601C701B601E9
:1020E0000E9485158823D1F185E691E00E943E0586
:1020F0008AE491E00E943E058FEF0E94D104809116
:102100003E0290E095958795182F1770163008F0CD
:102110000CC280914A028111B3C000913F02F02E9F
:10212000033010F092E0F92E0F190E94A90481E605
:102130000E945D0480933E0221E831E03A832983C6
:10214000FA943FEFF31609F49FC08FEF0E945D04ED
:10215000A981BA818D93BA83A983F2CF4601570131
:10216000E894B7F82FEF3FEF4FE75FE7C501B40101
:102170000E94851581110DC02FEF3FEF4FE75FE7FC
:10218000C501B4010E94751318161CF489E691E08C
:10219000ADCF2FEF3FEF4FE75FE4C701B6010E94DD
:1021A000CD1418161CF48DE691E0A0CF2FEF3FEF71
:1021B0004FE75FECC701B6010E94751387FDF3CFAF
:1021C00020E030E0A901C701B6010E94751387FF26
:1021D00009C06DE286E991E00E948D03F7FAF09460
:1021E000F7F8F0942AE037ED43EA5BE3C701B60164
:1021F0000E9409134B015C010E94EC136B017C01EE
:102200000E941B149B01AC01C501B4010E9408137C
:102210004B015C014AE0C701B6010E944B056EE22A
:1022200086E991E00E948D0320E030E040E251E435
:10223000C501B4010E94D2144B015C010E94EC1351
:102240006B01F12CE12C4AE0C701B6010E944B055D
:10225000C701B6010E941B149B01AC01C501B4016A
:102260000E94081320E030E040E251E40E94D214C2
:102270000E94EC1390E080E04AE00E944B0538CFCA
:1022800000E082E0F82E51CF015020F08FEF0E9445
:102290005D04FACF0E94EA0260E487E00E941C0518
:1022A00080914802882361F1186A198380914A025B
:1022B00000E014E0811107C000913F02102F0530AB
:1022C00008F014E0011B0E94A90489810E945D04AA
:1022D00080933E02E1E3F1E0FA83E983115040F09C
:1022E000A981BA818D91BA83A9830E945D04F6CF3A
:1022F000015020F080E00E945D04FACF0E94EA02C3
:10230000809181019091820181309105F1F41092C8
:10231000820110928101B0913701E1E0BE27B983BB
:10232000B093370190938C0180938B010E945104EC
:1023300060938701709388018093890190938A014B
:10234000F9818F2F90E00E948F05809181019091FB
:10235000820182309105B1F41092820110928101C4
:1023600090938C0180938B010E94510460938701AC
:10237000709388018093890190938A0182E090E0B4
:102380000E948F058091810190918201039729F528
:10239000109282011092810180919001843011F499
:1023A00010929001809190018F5F809390010E9424
:1023B0005104609387017093880180938901909301
:1023C0008A016091950170E090E080E04AE00E940F
:1023D0004B058AE491E00E943E0580918101909135
:1023E0008201049731F5109282011092810180914F
:1023F0008F01833011F410928F0180918F018F5FD4
:1024000080938F010E94510460938701709388012B
:102410008093890190938A0160918D0170918E0162
:1024200090E080E04AE00E944B058AE491E00E943F
:102430003E058091810190918201059721F51092CE
:1024400082011092810121E080917F0190918001B1
:10245000892B09F020E0422F50E05A8349835093A2
:10246000800140937F0120935A020E94510460939F
:102470008701709388018093890190938A018981F3
:102480009A810E948F058091810190918201069727
:1024900021F5109282011092810121E080917D014D
:1024A00090917E01892B09F020E0822F90E09A83A1
:1024B000898390937E0180937D0120935B020E942B
:1024C00051046093870170938801809389019093F0
:1024D0008A0189819A810E948F0580918101909162
:1024E0008201079771F410928201109281010E947B
:1024F00051046093870170938801809389019093C0
:102500008A018091810190918201089771F4109263
:102510008201109281010E9451046093870170939F
:1025200088018093890190938A01A0E0B0E0AB2BF1
:1025300011F40C944B0A0E945703882311F40C9455
:102540004B0A0E9400000C944B0A052E97FB1EF4C8
:1025500000940E94BC1257FD07D00E94D71207FCBE
:1025600003D04EF40C94BC125095409530952195B3
:102570003F4F4F4F5F4F08959095809570956195AF
:102580007F4F8F4F9F4F08950E94F912A59F900D86
:10259000B49F900DA49F800D911D11240895B7FF45
:1025A0000C94C4120E94C412821B930B0895A1E2E2
:1025B0001A2EAA1BBB1BFD010DC0AA1FBB1FEE1FBD
:1025C000FF1FA217B307E407F50720F0A21BB30B08
:1025D000E40BF50B661F771F881F991F1A9469F784
:1025E00060957095809590959B01AC01BD01CF01E0
:1025F0000895A29FB001B39FC001A39F700D811DDC
:102600001124911DB29F700D811D1124911D0895FB
:102610005058BB27AA270E9420130C9493140E94A1
:10262000851438F00E948C1420F039F49F3F19F47F
:1026300026F40C9482140EF4E095E7FB0C947C14C1
:10264000E92F0E94A41458F3BA176207730784078E
:10265000950720F079F4A6F50C94C6140EF4E095D5
:102660000B2EBA2FA02D0B01B90190010C01CA014C
:10267000A0011124FF27591B99F0593F50F4503EF7
:1026800068F11A16F040A22F232F342F4427585FE9
:10269000F3CF469537952795A795F0405395C9F701
:1026A0007EF41F16BA0B620B730B840BBAF09150B9
:1026B000A1F0FF0FBB1F661F771F881FC2F70EC058
:1026C000BA0F621F731F841F48F48795779567952B
:1026D000B795F7959E3F08F0B0CF9395880F08F017
:1026E0009927EE0F9795879508950E94581408F43E
:1026F00081E008950E948E130C9493140E948C1410
:1027000058F00E94851440F029F45F3F29F00C94A2
:102710007C1451110C94C7140C9482140E94A414BC
:1027200068F39923B1F3552391F3951B550BBB2700
:10273000AA2762177307840738F09F5F5F4F220F45
:10274000331F441FAA1FA9F335D00E2E3AF0E0E83C
:1027500032D091505040E695001CCAF72BD0FE2F86
:1027600029D0660F771F881FBB1F2617370748071A
:10277000AB07B0E809F0BB0B802DBF01FF279358D2
:102780005F4F3AF09E3F510578F00C947C140C9406
:10279000C7145F3FE4F3983ED4F386957795679529
:1027A000B795F7959F5FC9F7880F911D9695879507
:1027B00097F90895E1E0660F771F881FBB1F621726
:1027C00073078407BA0720F0621B730B840BBA0BE4
:1027D000EE1F88F7E09508950E94AC1488F09F578B
:1027E00098F0B92F9927B751B0F0E1F0660F771F35
:1027F000881F991F1AF0BA95C9F714C0B13091F02B
:102800000E94C614B1E008950C94C614672F782F67
:102810008827B85F39F0B93FCCF3869577956795EF
:10282000B395D9F73EF490958095709561957F4F5B
:102830008F4F9F4F0895E89409C097FB3EF4909501
:102840008095709561957F4F8F4F9F4F9923A9F089
:10285000F92F96E9BB279395F69587957795679518
:10286000B795F111F8CFFAF4BB0F11F460FF1BC05C
:102870006F5F7F4F8F4F9F4F16C0882311F096E9EF
:1028800011C0772321F09EE8872F762F05C066239D
:1028900071F096E8862F70E060E02AF09A95660F56
:1028A000771F881FDAF7880F9695879597F908950F
:1028B000990F0008550FAA0BE0E8FEEF1616170651
:1028C000E807F907C0F012161306E407F50798F0B9
:1028D000621B730B840B950B39F40A2661F0232BD2
:1028E000242B252B21F408950A2609F4A140A6954E
:1028F0008FEF811D811D089597F99F6780E870E033
:1029000060E008959FEF80EC089500240A94161665
:10291000170618060906089500240A9412161306CD
:10292000140605060895092E0394000C11F488235B
:1029300052F0BB0F40F4BF2B11F460FF04C06F5F77
:102940007F4F8F4F9F4F089557FD9058440F551F4D
:1029500059F05F3F71F04795880F97FB991F61F021
:102960009F3F79F087950895121613061406551F98
:10297000F2CF4695F1DF08C0161617061806991F04
:10298000F1CF86957105610508940895E894BB27F9
:1029900066277727CB0197F908950E94581408F409
:1029A0008FEF08950E94E5140C9493140E948514EF
:1029B00038F00E948C1420F0952311F00C947C14B4
:1029C0000C94821411240C94C7140E94A41470F364
:1029D000959FC1F3950F50E0551F629FF001729FC4
:1029E000BB27F00DB11D639FAA27F00DB11DAA1FD3
:1029F000649F6627B00DA11D661F829F2227B00D20
:102A0000A11D621F739FB00DA11D621F839FA00DAA
:102A1000611D221F749F3327A00D611D231F849FFA
:102A2000600D211D822F762F6A2F11249F57504051
:102A30009AF0F1F088234AF0EE0FFF1FBB1F661FCC
:102A4000771F881F91505040A9F79E3F510580F095
:102A50000C947C140C94C7145F3FE4F3983ED4F3B9
:102A6000869577956795B795F795E7959F5FC1F739
:102A7000FE2B880F911D9695879597F9089519F467
:102A800016F40C9482140C948A150E94AC14B8F3BA
:102A90009923C9F3B6F39F57550B87FF0E949815EA
:102AA0000024A0E640EA900180585695979528F4B6
:102AB000805C660F771F881F20F0261737074807AE
:102AC00030F4621B730B840B202931294A2BA69505
:102AD00017940794202531254A2758F7660F771F4A
:102AE000881F20F026173707480730F4620B730B56
:102AF000840B200D311D411DA09581F7B901842F54
:102B00009158880F9695879508950E945814880BC0
:102B1000990B08959F3F31F0915020F48795779558
:102B20006795B795880F911D9695879597F90895A4
:102B300091505040660F771F881FD2F70895DB0130
:102B40008F939F930E94C412BF91AF91A29F800D5B
:102B5000911DA39F900DB29F900D112408950E9486
:102B6000F912B7FF0895821B930B0895EE0FFF1F14
:0C2B70000590F491E02D0994F894FFCF3B
:102B7C000000010002803E8000000003314E6F64B3
:102B8C006500324E6F646500334E6F646500344EE1
:102B9C006F646500354E6F646500364E6F6465007A
:102BAC000166668640010001000000008D03ED0205
:102BBC001A03DA034B0329033D030D0A00737461F6
:102BCC0072745F73657475700073746172745F7284
:102BDC006164696F006E616E00696E66006F766687
:022BEC000000E7
:00000001FF
