:100000000C94D9000C949B060C9476060C94010178
:100010000C9401010C9401010C94C0060C94010194
:100020000C9401010C9401010C9401010C94010148
:100030000C9401010C9401010C9401010C94010138
:100040000C9421060C9401010C94F4050C94CE053B
:100050000C9401010C9401010C9401010C94010118
:100060000C9401010C9401010A0B0C0D0E0F000100
:10007000020304050000000000000000010101016E
:10008000010101010202020202020203030303034F
:100090000404040505050505060606060707070806
:1000A00008080808090A0A0A0A0B0B0C0C0C0C0DAC
:1000B0000D0D0E0E0F0F0F1011111111121213143E
:1000C0001414141516161717171819191A1A1B1BBA
:1000D0001C1C1D1E1E1F1F20212122232324252519
:1000E0002626272829292A2B2C2D2D2E2F2F30315B
:1000F000323334353636373838393A3B3C3D3E3F7B
:10010000404142434445454647494A4B4C4D4E4F7A
:1001100050515254555657595A5B5D5E5F6061624B
:1001200064656667696A6C6D6E6F717375767779F1
:100130007A7B7C7F808283858688898B8C8F919265
:10014000939497999A9C9E9FA2A3A5A7A9ABADAEA5
:10015000B0B3B4B6B9BABCBEC0C2C4C7C9CACDCFA9
:10016000D1D3D6D8DADCDFE1E2E6E7EBECF0F1F56B
:10017000F6FAFBFF00000000240027002A00000020
:100180000000250028002B000404040404040404D7
:100190000202020202020303030303030102040832
:1001A00010204080010204081020010204081020E1
:1001B000C60611241FBECFEFD4E0DEBFCDBF11E0D5
:1001C000A0E0B1E0ECEEFBE202C005900D92A83792
:1001D000B107D9F724E0A8E7B1E001C01D92AB3A1E
:1001E000B207E1F710E0C9EDD0E004C02197FE01AD
:1001F0000E94F412C83DD107C9F70E94E2070C948F
:10020000F4150C9400004F925F926F927F928F9240
:100210009F92AF92BF92CF92DF92EF92FF920F9395
:100220001F93CF93DF9300D00F92CDB7DEB78091AD
:10023000A604E0919E04F0919F049081982B9093E6
:10024000A8049081809589238093A904F090950457
:10025000F092960400919C0410919D0401151105E3
:1002600009F4AAC0E5EBF2E025E934E0412C512C79
:100270003201CF2CD12CA6014F5F5F4F819191911C
:10028000A92FBB27A87FBB27A49FB001A59F700DF6
:10029000B49F700D1124672F7727460E571E611CDF
:1002A000711CDC0163E0B695A7956A95E1F7AC7F18
:1002B000BB27A49FB001A59F700DB49F700D1124A2
:1002C000672F7727460E571E611C711CB3E0880FFD
:1002D000991FBA95E1F79927849FB001859F700D0A
:1002E000949F700D1124672F7727460E571E611CAF
:1002F000711C2E173F0711F6552777FC5A95472D8D
:10030000362D252DA091B102B091B2020E94241386
:1003100023E030E040E050E00E94FA1229013A0167
:10032000A091B302B091B40241145104610471046C
:1003300009F440C020EF30E00E94ED1228EE33E0D7
:1003400040E050E00E94FA1253014201820E931ED7
:10035000A41EB51EC801012E000CAA0BBB0B8816EB
:100360009906AA06BB0634F1B801621B730B072E6F
:10037000000C880B990B0E9472144B015C01B601B2
:10038000DD0C880B990B0E9472149B01AC01C50116
:10039000B4010E9427156B017C01C301B2010E94C8
:1003A00072149B01AC01C701B6010E94CF130E94D9
:1003B0004114F62EF0929604E5EBF2E065E974E064
:1003C0008E010C5F1F4F219131918091960490E036
:1003D0000196432F5527487F5527489FD001499FB5
:1003E000B00D589FB00D1124BA83A901A3E0569512
:1003F0004795AA95E1F74C7F5527489FD001499F23
:10040000B00D589FB00D1124B983B3E0220F331FF4
:10041000BA95E1F73327289FA001299F500D389FF7
:10042000500D11245B838FB78093AA04F8945091E8
:10043000A804F090A904C0909E04D0909F04CE011F
:100440000196DC012D91CD01D60138E05C9327FFA8
:10045000FC92220F43E04A95F1F70000FC923A9596
:10046000A9F70817190769F78091AA048FBF6E17BB
:100470007F0709F0A8CF0F900F900F90DF91CF91D9
:100480001F910F91FF90EF90DF90CF90BF90AF90B2
:100490009F908F907F906F905F904F900895482F1E
:1004A000E62F282F30E0863009F459C000F583305C
:1004B000E1F1853009F44FC04830E0F14E3010F1E1
:1004C000443108F063C02E50310981E090E0A0E093
:1004D000B0E004C0880F991FAA1FBB1F2A95D2F74E
:1004E00028B1EE2309F44FC0822B88B908958A30D1
:1004F000C9F18B30D9F18930F9F6809180008F777E
:10050000809380002850310981E090E0A0E0B0E0C5
:1005100004C0880F991FAA1FBB1F2A95D2F7E111AB
:100520002EC025B1809582232CC09091B0009F7D74
:100530009093B00081E090E0A0E0B0E004C0880FAC
:10054000991FAA1FBB1F4A95D2F72BB1EE23A1F02A
:10055000822B8BB9089594B59F7D94BDEBCF94B554
:100560009F77FBCF809180008F7DCACF8091B000B4
:100570008F778093B000C6CF80958223EACF25B1D4
:10058000822B85B9089580958223AFCF089510926C
:100590007F0280918202882341F060915F0281E0B6
:1005A000682780915E020C944F020895682F809115
:1005B0003D020E944F028091550290915602823076
:1005C000910538F0880F991F880F991F059701979B
:1005D000F1F7089581E00C94D602CF92DF92EF926A
:1005E000FF920F931F93CF93DF937C016A0110E07A
:1005F00000E00C151D0581F0EB01D701ED91FC9198
:100600000190F081E02D6991C7010995892B21F0B6
:100610000F5F1F4FBE01EDCFC801DF91CF911F913A
:100620000F91FF90EF90DF90CF900895FC01538DD4
:10063000448D252F30E0842F90E0821B930B5417BC
:1006400010F0CF96089501970895FC01918D828D49
:10065000981761F0A28DAE0FBF2FB11D5D968C91E2
:10066000928D9F5F9F73928F90E008958FEF9FEF21
:100670000895FC01918D828D981731F0828DE80FDD
:10068000F11D858D90E008958FEF9FEF0895FC0197
:10069000918D228D892F90E0805C9F4F821B910964
:1006A0008F73992708958BE991E00E94470321E019
:1006B000892B09F420E0822F089580E090E0892BB7
:1006C00029F00E94530381110C9400000895FC014D
:1006D000A48DA80FB92FB11DA35ABF4F2C91848DA3
:1006E00090E001968F739927848FA689B7892C9300
:1006F000A089B1898C91837080648C93938D848D53
:10070000981306C00288F389E02D80818F7D808355
:100710000895EF92FF920F931F93CF93DF93EC0115
:10072000F62E81E0888F9B8D8C8D98131AC0E889F6
:10073000F989808185FF15C09FB7F894EE89FF89FC
:100740006083E889F98980818370806480839FBF9A
:1007500081E090E0DF91CF911F910F91FF90EF909A
:1007600008950B8D10E00F5F1F4F0F731127E02EC0
:100770008C8D8E110CC00FB607FCFACFE889F98971
:10078000808185FFF5CFCE010E946703F1CFEB8D0D
:10079000EC0FFD2FF11DE35AFF4FF0829FB7F89445
:1007A0000B8FEA89FB8980818062D0CFCF93DF9362
:1007B000EC01888D8823B9F0AA89BB89E889F98979
:1007C0008C9185FD03C0808186FD0DC00FB607FCAE
:1007D000F7CF8C9185FFF2CF808185FFEDCFCE01E1
:1007E0000E946703E9CFDF91CF9108953FB7F89456
:1007F00080917D0190917E01A0917F01B091800157
:1008000026B5A89B05C02F3F19F00196A11DB11D6B
:100810003FBFBA2FA92F982F8827BC01CD01620FA7
:10082000711D811D911D42E0660F771F881F991F62
:100830004A95D1F708958F929F92AF92BF92CF922F
:10084000DF92EF92FF926B017C010E94F6034B0155
:100850005C010E94F603681979098A099B09683EC0
:10086000734081059105A8F381E0C81AD108E10819
:10087000F10828EE820E23E0921EA11CB11CC114C7
:10088000D104E104F10429F7FF90EF90DF90CF90BD
:10089000BF90AF909F908F9008952FB7F89460917C
:1008A000790170917A0180917B0190917C012FBF39
:1008B00008958EBD00000DB407FEFDCF8EB50895DE
:1008C00090938D0280938C0220917F02211139C078
:1008D0009093890280938802009711F1BC0190E007
:1008E00080E00E9470149B01AC0160E070E080E049
:1008F00090E40E94CF130E949A1520E03AE045E26E
:1009000059E40E9427150E9441146093900270934D
:100910009102809392029093930210928102089523
:100920008091750290917602A0917702B091780241
:100930008093900290939102A0939202B0939302BD
:10094000ECCF81E08093810208950F931F93009173
:100950003F0210914002209141023091420240E05A
:1009600052E16AE770E080E00417150726073707B1
:1009700040F476956795579547958F5F8630A1F738
:1009800087E0982F906A9695809581709CBD8DBD6B
:1009900080E01F910F910C94D602CF93DF93D82F54
:1009A000C62F0E94A5048D2F80620E945904809357
:1009B00043028C2F0E945904DF91CF910C94EA02DC
:1009C00060914A0261FD0AC0626060934A0280E061
:1009D0000E94CD048BE19EE40197F1F70895CF9337
:1009E000C82F0E94A5048C2F0E94590480934302B3
:1009F0008FEF0E945904C82F0E94EA028C2FCF91DA
:100A00000895FF920F931F93CF93DF93C82FF62E75
:100A1000072F142F0E94A5048C2F80620E94590476
:100A200080934302115040F0CF2DD02F89910E9426
:100A30005904FC2E0D2FF6CFDF91CF911F910F910E
:100A4000FF900C94EA020E94A50480E50E945904DC
:100A50008093430283E70E9459040C94EA020097B2
:100A600069F0FC0101900020E9F73197AF01481BC4
:100A7000590BBC018BE991E00C94ED0290E080E011
:100A80000895CF93DF930E942F05EC018BE491E052
:100A90000E942F058C0F9D1FDF91CF9108958F929B
:100AA0009F92AF92BF92CF92DF92EF92FF920F93FD
:100AB0001F93CF93DF93CDB7DEB7A1970FB6F8940E
:100AC000DEBF0FBECDBF6B017C0119A2423008F41E
:100AD0004AE08E010F5D1F4F842E912CB12CA12C6A
:100AE000C701B601A50194010E942C136A3014F5C8
:100AF000605DF80162938F01C814D904EA04FB0415
:100B0000B0F4CF010E942F05A1960FB6F894DEBF76
:100B10000FBECDBFDF91CF911F910F91FF90EF904E
:100B2000DF90CF90BF90AF909F908F900895690114
:100B30007A01D6CF695CDDCFCF92DF92EF92FF9240
:100B4000CF93DF936C01990FEE08FF08F7FE1FC0EB
:100B50006DE28BE991E00E948903EC01662777271B
:100B6000CB016C197D098E099F094AE00E944F054F
:100B7000C80FD91F8BE491E00E942F058C0F9D1F99
:100B8000DF91CF91FF90EF90DF90CF9008954AE0F2
:100B9000C701B6010E944F05EC01ECCF1F920F92E6
:100BA0000FB60F9211242F933F934F935F936F9340
:100BB0007F938F939F93AF93BF93EF93FF938BE9B3
:100BC00091E00E946703FF91EF91BF91AF919F91D8
:100BD0008F917F916F915F914F913F912F910F90E6
:100BE0000FBE0F901F9018952F932FB72F938F93B1
:100BF0009F93EF93FF93E091AB01F091AC01808163
:100C0000E091B101F091B20182FD19C09081809113
:100C1000B4018F5F8F732091B501821741F0E0918D
:100C2000B401F0E0E556FE4F958F8093B401FF913B
:100C3000EF919F918F912F912FBF2F9118958081C8
:100C4000F6CF1F921FB61F9211248F939F93AF93DD
:100C5000BF938091790190917A01A0917B01B0912D
:100C60007C010196A11DB11D8093790190937A01B9
:100C7000A0937B01B0937C018091780193E0980F61
:100C80009D37E8F49093780180917D0190917E01E9
:100C9000A0917F01B09180010196A11DB11D8093AB
:100CA0007D0190937E01A0937F01B0938001BF915D
:100CB000AF919F918F911F901FBE1F9018958A57DB
:100CC000809378018091790190917A01A0917B01C4
:100CD000B0917C010196A11DB11D80937901909383
:100CE0007A01A0937B01B0937C01CECF1F920F922B
:100CF0000FB60F9211242F933F934F935F936F93EF
:100D00007F938F939F93AF93BF93EF93FF93F0E005
:100D1000E0E00995FF91EF91BF91AF919F918F9185
:100D20007F916F915F914F913F912F910F900FBEE7
:100D30000F901F9018951F920F920FB60F921124CB
:100D40002F933F934F935F936F937F938F939F93D3
:100D5000AF93BF93EF93FF93F0E0E0E00995FF912D
:100D6000EF91BF91AF919F918F917F916F915F9123
:100D70004F913F912F910F900FBE0F901F9018959C
:100D80008F9381E0809382018F9118951F93CF9369
:100D9000DF93EBE9F1E01382128288EE93E0A0E0AA
:100DA000B0E084839583A683B7838DE391E091833C
:100DB000808385EC90E09587848784EC90E097872A
:100DC000868780EC90E0918B808B81EC90E0938B18
:100DD000828B82EC90E0958B848B86EC90E0978BF5
:100DE000868B118E128E138E148EA1EBB2E08EE2E2
:100DF00090E011969C938E9380ED97E013969C93D0
:100E00008E93129782E380939504809396041092B8
:100E10009704109298041092990410929A041092D8
:100E20009B0410929D0410929C048FB78093AA0497
:100E3000E3EAF1E024912093A6048FE891E0FC011D
:100E40003491E32FF0E0EE0FFF1FE258FE4F459183
:100E5000549150939F0440939E04FC018491E82F89
:100E6000F0E0EE0FFF1FEC58FE4FC591D491D093E8
:100E7000A104C093A004E881E22BE8838EE190E016
:100E800011969C938E9384E992E013969C938E9393
:100E90001297C9E5D2E0188219821A821B8211E0EA
:100EA0001C838FEF8D831E821F82188619861B86F6
:100EB0001A861D861C86399AE7E9F1E0E491F0E094
:100EC000EE0FFF1FE258FE4F859194919F878E870A
:100ED000EBEAF1E0E491EA8B3A9AE8E9F1E0E49197
:100EE000F0E0EE0FFF1FE258FE4F85919491998B31
:100EF000888BECEAF1E0E491EB8B81E18D833B9A06
:100F00001C8A1D8A1E8A1F8A80E197E2A0E0B0E059
:100F1000888F998FAA8FBB8F8C8F9D8FAE8FBF8F3D
:100F200018A219A21AA21BA21EA21FA218A619A6D5
:100F30001EA61092AC021092AD021092AE02109258
:100F4000AF021092B00220E330E03DA32CA38AA7A9
:100F50009BA7ACA7BDA784E690E09AAB89AB8FA511
:100F600098A90E94600418A688EC90E00E94600492
:100F7000E9E3F2E089E090E0938382838AE090E005
:100F80009583848380E896E9A8E9B0E08683978317
:100F9000A087B18780E28387128A138A85E0858BD8
:100FA000168B85E090E0A0E0B0E0848F958FA68F4F
:100FB000B78F88E392E0918380831486DF91CF918D
:100FC0001F910895CDB7DEB766970FB6F894DEBFD0
:100FD0000FBECDBFF89482E880937A0023E024BD51
:100FE00025BD80916E00816080936E0031E030936A
:100FF00080008BE0809381003093B00084E0809388
:10100000B1001092C10078948FEF9FEF90939401FC
:1010100080939301E4E7F0E0E491E0939504529A21
:10102000439A61E082E00E944F023898469843E07C
:1010300040932501E091AB01F091AC0182E0808307
:10104000E091AB01F091AC011082E091A701F09129
:10105000A8011082E091A901F091AA0180E18083AA
:101060001092B301E091AF01F091B00186E080836E
:10107000E091AD01F091AE01808180618083E091CB
:10108000AD01F091AE01808188608083E091AD0177
:10109000F091AE01808180688083E091AD01F09194
:1010A000AE0180818F7D80838EE491E00E944105B6
:1010B00051E050935D0282E896E0A0E0B0E08093BA
:1010C000710290937202A0937302B093740283E052
:1010D00080937F0280918202882331F060915F02C9
:1010E00080915E020E944F0260915F0281E068275A
:1010F00080915E020E944F029FB79983F89480917D
:10110000810181111EC0E2E9F1E08491E6EAF1E09B
:101110009491E82FF0E0EE0FFF1FEC58FE4FA591E1
:10112000B491EC91E92321F461E08AE00E944F023E
:10113000229A8CB580618CBD8CB580648CBD259A5B
:10114000239A809181018F5F80938101A981AFBF34
:1011500080913B0290913C028F3F980709F4B8C000
:1011600020913D0230913E022F3F320709F4B0C07A
:101170008217930731F1883008F0E2C35AB1C12CCD
:10118000D12C7601C394082E04C0CC0CDD1CEE1CBF
:10119000FF1C0A94D2F7452F4C294AB9283008F091
:1011A000FAC35AB1C12CD12C7601C394022E04C0CB
:1011B000CC0CDD1CEE1CFF1C0A94D2F7452F4C29E9
:1011C0004AB98217930719F060E00E944F0281E04C
:1011D0000E94D60265E070E080E090E00E941B046F
:1011E0006FE584E00E94CD0485E590E0A0E0B0E0EA
:1011F0008093510290935202A0935302B0935402F1
:1012000067E086E00E94CD048DE10E94EF048983AF
:101210000E9423058DE10E94EF0491E0F981F8130B
:1012200090E090934B02882349F02981281302C053
:101230000E94230560E08DE10E94CD0410924D02D2
:1012400060E08CE10E94CD0410924F026FE381E0D8
:101250000E94CD0463E082E00E94CD0480E280938E
:10126000440231E139836091440289810E94CD04B6
:1012700049814F5F49834731B1F763E083E00E94C2
:10128000CD0485E080934E026CE40E94CD0460E7BB
:1012900087E00E94CD040E94A50482EE0E945904BA
:1012A000809343020E94EA020E94A50481EE0E94FC
:1012B0005904809343020E94EA026CE080E00E949D
:1012C000CD0480E00E94EF0480934A020E94E00473
:1012D0006FE381E00E94CD046FE084E00E94CD04C2
:1012E00080914D02811115C08DE10E94EF04682F9D
:1012F00066608DE10E94CD048CE10E94EF04682FAE
:1013000063608CE10E94CD0481E080934F02809362
:101310004D0280E28093440251E15983609144027E
:1013200089810E94CD0489818F5F89838731B1F7DC
:1013300040914E0261E071E08AE00E940105409117
:101340004E0261E071E080E10E940105E9E6F0E013
:10135000849140914E0261E071E00E94010582E0BB
:101360000E94EF04EFE6F0E0E49161E070E001C07C
:10137000660FEA95EAF7682B82E00E94CD0468E6E2
:1013800085E00E94CD0486E00E94EF04682F67602C
:1013900086E00E94CD0486E00E94EF0445E550E01F
:1013A00060E070E040935102509352026093530208
:1013B00070935402682F677D86E00E94CD0486E01A
:1013C0000E94EF048AE591E00E9441050E94E0043A
:1013D0000E94E00460914A02616060934A0280E0EA
:1013E0000E94CD0460E787E00E94CD0480913B021B
:1013F00090913C0220913D0230913E02821793076A
:1014000019F061E00E944F0280914C02882309F498
:10141000EEC240914E0265E472E08AE00E9401054E
:10142000109282010E94F6036B0188E198E00FB6EA
:10143000F894A895809360000FBE9093600080910F
:101440006000806480936000A89580918201882369
:10145000E1F30FB6F894A8958091600088618093BD
:101460006000109260000FBE0E94F6036C197D09A7
:1014700070932C0160932B0184E080932A011092D9
:101480002901E89868EC70E080E090E00E941B047D
:10149000F5E92F2EF4E03F2E80917F02882309F496
:1014A00080C00E94F60300916D0210916E0220919F
:1014B0006F02309170026B017C01C01AD10AE20AFE
:1014C000F30A00917102109172022091730230911F
:1014D0007402C016D106E206F30608F462C06093F7
:1014E0006D0270936E0280936F02909370028091F0
:1014F0007F02882309F455C020915D02422F022EFD
:10150000000C550B660B770B8091590290915A0293
:10151000A0915B02B0915C02840F951FA61FB71FBC
:101520008093590290935A02A0935B02B0935C029D
:10153000809161022817A1F020936102E091690275
:10154000F0916A0281E012160CF080E09091600246
:10155000891709F461C280916C029081892B808384
:1015600080916B02E0916702F09168029081892B73
:1015700080838BE090E00197F1F780916B02E0911E
:101580006702F09168029081809589238083309171
:101590007F02332331F0333008F444C2343009F48D
:1015A0004FC520919801309199013A832983209168
:1015B0009A0130E0A981BA810E94ED1228EE33E051
:1015C00040E050E00E94FA126901309397012093A5
:1015D000960180913801882309F4BEC58091950158
:1015E000813009F0E5C5E0919801F0919901FA8305
:1015F000E9833297FCF0E0919601F0919701FF2783
:10160000EC58FF4FE491E093950480919301909101
:101610009401E5EBF2E0819391932E163F06D9F702
:101620000E94030129813A812150310930939901A7
:10163000209398010E944D0400918F011091900118
:101640002091910130919201601B710B820B930BE1
:1016500060387E4E8643910580F00E944D04609371
:101660008F0170939001809391019093920181E09A
:1016700090E090938E0180938D010E944D04C09064
:101680008901D0908A01E0908B01F0908C016C1957
:101690007D098E099F09603E7E428105910520F0FB
:1016A00060E084E00E944F020E944D046C197D09A5
:1016B0008E099F09603770438105910570F061E0E4
:1016C00084E00E944F020E944D0460938901709350
:1016D0008A0180938B0190938C010E944D046033AA
:1016E00075478105910508F45AC00E944D04809108
:1016F0002501F0E48F9FC001112480937C0080912C
:101700007A00806480937A0080917A0086FDFCCF15
:1017100020917800309179003A832983B901330F01
:10172000880B990B0E9472142AE037ED43EA5BE3C1
:101730000E94271560933201709333018093340126
:101740009093350189819A810E949C05C090320155
:10175000D0903301E0903401F0903501A70196015B
:10176000C701B6010E94DA15882309F451C586E63F
:1017700091E00E942F058BE491E00E942F0526E660
:1017800036E646E450E46091320170913301809175
:101790003401909135010E94CA1387FD07C08091E2
:1017A0008D0190918E01019709F092C010928E01E7
:1017B00010928D0182E791E00E94410568EC70E093
:1017C00080E090E00E941B0460E082E00E944F02F3
:1017D00060E084E00E944F0260E971E080E090E008
:1017E0000E941B0461E084E00E944F0260E971E006
:1017F00080E090E00E941B0460E084E00E944F02C1
:1018000060E971E080E090E00E941B0461E084E008
:101810000E944F0280913B0290913C0220913D0238
:1018200030913E028217930719F060E00E944F0248
:1018300060914A026D7F60934A0280E00E94CD046D
:1018400080917A008F7780937A0080B7806880BF1C
:101850008091640089608093640031E030932701B7
:1018600020912A01822F8D7F41F090917A009F77FD
:1018700090937A0090B7906890BF83B7817F822B56
:1018800083BF83B7816083BF80912901882309F4D6
:1018900051C5789488950FB6F894A895809160000A
:1018A000886180936000109260000FBEA89583B796
:1018B0008E7F83BF8091640080FD08C080917A0094
:1018C000806880937A0080B78F7780BF109227015D
:1018D0000E94A5048FEF0E945904809343020E9446
:1018E000EA028091430290E095958795182F177032
:1018F000163008F052C680914F02811122C5009126
:101900004402F02E033010F092E0F92E0F190E94DD
:10191000A50481E60E9459048093430247E851E000
:101920005A834983FA945FEFF51609F40EC58FEFD9
:101930000E945904A981BA818D93BA83A983F2CFF9
:101940008E3098F454B1A82FA850BB0BC12CD12CC9
:101950007601C39404C0CC0CDD1CEE1CFF1CAA95C0
:10196000D2F7452F4C2944B919CC843108F016CC54
:1019700057B1E82FEE50FF0BC12CD12C7601C39448
:1019800004C0CC0CDD1CEE1CFF1CEA95D2F7452FE1
:101990004C2947B903CC2E30A0F454B1A22FA85043
:1019A000BB0BBD01C12CD12C7601C39404C0CC0C5F
:1019B000DD1CEE1CFF1C6A95D2F7452F4C2944B95B
:1019C00000CC243108F0FDCB57B1E22FEE50FF0BD5
:1019D000C12CD12C7601C39404C0CC0CDD1CEE1CB0
:1019E000FF1CEA95D2F7452F4C2947B9EACB82E094
:1019F0000E94EF04EEE6F0E0E49121E030E001C067
:101A0000220FEA95EAF72095622F682382E00E9470
:101A1000CD0410924C0204CD80916C02908180958F
:101A200089239DCD4091A8025091A9026091AA02FC
:101A30007091AB024A015B019FEF891A990AA90ACA
:101A4000B90A8092A8029092A902A092AA02B0922A
:101A5000AB0280919C0290919D02A0919E02B09158
:101A60009F0288169906AA06BB060CF059C0C090C2
:101A70009402D0909502E0909602F0909702C701F0
:101A8000B601660F771F881F991F0091A40210915D
:101A9000A5022091A6023091A702080D191D2A1D4A
:101AA0003B1DA9019801E2E0220F331F441F551F7F
:101AB000EA95D1F72F5F3F4F4F4F5F4F0E942C1396
:101AC000C21AD30AE40AF50AC0929402D09295028F
:101AD000E0929602F0929702FAE0F694E794D79497
:101AE000C794FA95D1F78091750290917602A091F2
:101AF0007702B0917802C816D906EA06FB0628F1EB
:101B00008091900290919102A0919202B0919302E3
:101B1000C816D906EA06FB06C0F4D701C60115C0EF
:101B20008091A0029091A102A091A202B091A30283
:101B300088169906AA06BB068CF4809175029091CE
:101B40007602A0917702B09178028093710290930F
:101B50007202A0937302B093740223CD8091980215
:101B600090919902A0919A02B0919B0288169906D1
:101B7000AA06BB0654F5C0909402D0909502E0905E
:101B80009602F090970226013701440C551C661C02
:101B9000771C88199909AA09BB094C015D0102E06B
:101BA000880C991CAA1CBB1C0A95D1F7A5019401AD
:101BB0002F5F3F4F4F4F5F4FC301B2010E942C1365
:101BC000C20ED31EE41EF51E7FCF8091B002882383
:101BD00009F42FC20E94C70280918702882331F046
:101BE0000E94C702A1E0A0938002DBCCC090AC02AF
:101BF000D090AD02E090AE02F090AF0280918102F1
:101C0000882311F120918302309184024091850252
:101C100050918602209375023093760240937702AA
:101C20005093780260E472E48FE090E00E942C13FD
:101C300030938B0220938A0280918C0290918D02C6
:101C40000E94600410928102C0927902D0927A02BE
:101C5000E0927B02F0927C028090590290905A02AE
:101C6000A0905B02B0905C02C814D904EA04FB04A3
:101C700009F4B6CF1092B00226013701481859086E
:101C80006A087B0877FE08C0709460945094409472
:101C9000411C511C611C711C409298025092990287
:101CA00060929A0270929B028C149D04AE04BF0451
:101CB0000CF451C1BFEFBD8BF0917F02FE8BFF236F
:101CC00009F44CC12091710230917202409173026B
:101CD0005091740260E472E48FE090E00E942C1353
:101CE0002D833E834F8358872D813E814F815885B8
:101CF000CA01B9010E94DD1269877A878B879C87A8
:101D00000091880210918902980150E040E02D87EF
:101D10003E874F87588B220F331F441F551F298B37
:101D20003A8B4B8B5C8B0E94FA1229833A834B834C
:101D30005C83421653066406750644F03E893323DD
:101D400089F180915D024D89841761F151E05093D2
:101D5000B002C092AC02D092AD02E092AE02F0921C
:101D6000AF02A0915D020A2E000CBB0B29813A81C3
:101D70004B815C810E942413680D791D8A1D9B1D77
:101D80006093790270937A0280937B0290937C0235
:101D9000DA01C9018093980290939902A0939A0264
:101DA000B0939B028091750290917602A091770288
:101DB000B0917802C0909802D0909902E0909A0277
:101DC000F0909B02012B09F419C1803EE3E99E07C4
:101DD000E4E0AE07B10508F011C1A0918A02B0910C
:101DE0008B029D010E944E132B013C0169857A856F
:101DF0008B859C852D853E854F8558890E94FA12DA
:101E000029833A834B835C83C301B2012D853E85D0
:101E10004F8558890E94FA1289819A81AB81BC81D1
:101E2000B595A79597958795281B390B4A0B5B0BA2
:101E3000C216D306E406F5060CF0B3C08091B002DA
:101E4000882309F490C010929C0210929D02109277
:101E50009E0210929F0280919C0290919D02A091FF
:101E60009E02B0919F028093A0029093A102A09342
:101E7000A202B093A302209188023091890250E01F
:101E800040E0220F331F441F551F69857A858B85DB
:101E90009C850E94FA122093A4023093A5024093DD
:101EA000A6025093A7028D819E81AF81B885892BB0
:101EB0008A2B8B2B81F48091900290919102A091BA
:101EC0009202B09193028093710290937202A09358
:101ED0007302B09374028091710290917202A0918A
:101EE0007302B09174021AE0880F991FAA1FBB1FDA
:101EF0001A95D1F78093940290939502A09396023D
:101F0000B09397021092A8021092A9021092AA020E
:101F10001092AB028091790290917A02A0917B029B
:101F2000B0917C0288169906AA06BB060CF47FC005
:101F30008FEF80935D0291E090937F028091820207
:101F4000882331F060915F0280915E020E944F020F
:101F50001092800226CBE1E0ED8BAECE1D821E8278
:101F60001F821886C1CED701C601B595A795979552
:101F70008795C980DA80EB80FC8032E0F594E794A5
:101F8000D794C7943A95D1F78C199D09AE09BF092A
:101F900080939C0290939D02A0939E02B0939F0217
:101FA0005ACFC301B20129853A854B855C85621BF6
:101FB000730B840B950B29893A894B895C890E94A4
:101FC000FA1220939C0230939D0240939E025093FC
:101FD0009F02C301B20129893A894B895C890E9419
:101FE000FA12C21AD30AE40AF50AC092A002D092E9
:101FF000A102E092A202F092A3023DCF1092A402AD
:102000001092A5021092A6021092A70210929C02B2
:1020100010929D0210929E0210929F02C092A00206
:10202000D092A102E092A202F092A3024CCF81E0F2
:1020300080CF313011F4309380020E94C702B1CAC0
:10204000A0918E02B0918F021197BA83A983B093A9
:102050008F02A0938E02C0909402D0909502E090DF
:102060009602F0909702C701B601660F771F881F8E
:10207000991F9D01BB0F440B550BE2E0220F331F4C
:10208000441F551FEA95D1F72F5F3F4F4F4F5F4FCA
:102090000E942C13C20ED31EE41EF51EC0929402A1
:1020A000D0929502E0929602F0929702FAE0F694AE
:1020B000E794D794C794FA95D1F7809175029091DF
:1020C0007602A0917702B0917802C816D906EA0686
:1020D000FB0678F08091900290919102A09192027B
:1020E000B0919302C816D906EA06FB0610F4D70190
:1020F000C6018093710290937202A0937302B09311
:1021000074020091590210915A0220915B023091A1
:102110005C024091790250917A0260917B02709149
:102120007C02041715072607370709F486CFE981D3
:10213000FA811E161F060CF080CF4091900250913C
:102140009102609192027091930284179507A607FD
:10215000B70708F072CF25CA80919501813041F50B
:1021600049815A81473E53400CF064CAF601FF276B
:10217000EC58FF4FE491E093950480919301909186
:102180009401E5EBF2E0819391932E163F06D9F787
:102190000E940301A981BA811196B0939901A0937D
:1021A0009801C6010E949C0580913801811116CAD0
:1021B00080919501823009F03DCA809198019091FB
:1021C00099010197873E934058F080913601909194
:1021D000370191958195910990933701809336014C
:1021E000E0919601F0919701FF27EC58FF4FE491A1
:1021F000E09395048091930190919401E5EBF2E0D6
:10220000819391932E163F06D9F70E94030112CABB
:1022100046015701E894B7F82FEF3FEF4FE75FE72C
:10222000C501B4010E94DA1581110DC02FEF3FEFF7
:102230004FE75FE7C501B4010E94CA1318161CF4EA
:102240008AE691E096CA2FEF3FEF4FE75FE4C701C0
:10225000B6010E94221518161CF48EE691E089CA78
:102260002FEF3FEF4FE75FECC701B6010E94CA13A3
:1022700087FDF3CF20E030E0A901C701B6010E943D
:10228000CA1387FF09C06DE28BE991E00E948903C0
:10229000F7FAF094F7F8F0942AE037ED43EA5BE3BD
:1022A000C701B6010E945E134B015C010E944114FC
:1022B0006B017C010E9470149B01AC01C501B4014B
:1022C0000E945D134B015C014AE0C701B6010E9408
:1022D0004F056EE28BE991E00E94890320E030E037
:1022E00040E251E4C501B4010E9427154B015C0195
:1022F0000E9441146B01F12CE12C4AE0C701B601A8
:102300000E944F05C701B6010E9470149B01AC01E9
:10231000C501B4010E945D1320E030E040E251E4C9
:102320000E9427150E94411490E080E04AE00E943C
:102330004F0521CAF89485B7806685BF8F7D85BF1C
:10234000A8CA00E082E0F82EE2CA015020F08FEF28
:102350000E945904FACF0E94EA0260E487E00E94DA
:10236000CD0480914D02882361F1186A1983809110
:102370004F0200E014E0811107C000914402102FC9
:10238000053008F014E0011B0E94A50489810E9419
:10239000590480934302E2E3F1E0FA83E9831150A8
:1023A00040F0A981BA818D91BA83A9830E94590412
:1023B000F6CF015020F080E00E945904FACF0E942D
:1023C000EA0280918701909188010197B1F41092FF
:1023D00088011092870180913801B1E08B278093AA
:1023E0003801B09395010E944D0460938F01709362
:1023F0009001809391019093920180918701909137
:102400008801029789F4109288011092870182E076
:10241000809395010E944D0460938F017093900109
:10242000809391019093920180918701909188010E
:102430000397E1F4109288011092870180919A012C
:10244000882341F08E3131F08A3521F0863911F040
:10245000863E11F410929A010E944D0460938F0100
:1024600070939001809391019093920180918701E4
:1024700090918801049709F51092880110928701C4
:1024800080919301909194018F3F980731F08F31A3
:10249000910519F08115984F31F42FEF3FEF3093EC
:1024A0009401209393010E944D0460938F017093D7
:1024B0009001809391019093920180918701909176
:1024C00088010597F1F4109288011092870121E0AC
:1024D0008091850190918601892B09F020E0822F5F
:1024E00090E0909386018093850120935F020E9483
:1024F0004D0460938F0170939001809391019093AC
:10250000920180918701909188010697F1F41092D1
:1025100088011092870121E08091830190918401CC
:10252000892B09F020E0822F90E090938401809322
:102530008301209360020E944D0460938F01709389
:1025400090018093910190939201809187019091E5
:102550008801079771F410928801109287010E94F8
:102560004D0460938F01709390018093910190933B
:1025700092018091870190918801089771F41092DF
:102580008801109287010E944D0460938F0170931F
:102590009001809391019093920140E050E0452B8F
:1025A00011F40C944C0A0E945303882311F40C94E8
:1025B0004C0A0E9400000C944C0ADB018F939F93FD
:1025C0000E941913BF91AF91A29F800D911DA39FEF
:1025D000900DB29F900D112408950E944E13B7FFE5
:1025E0000895821B930B0895EE0FFF1F0590F49141
:1025F000E02D0994052E97FB1EF400940E94111300
:1026000057FD07D00E942C1307FC03D04EF40C9406
:10261000111350954095309521953F4F4F4F5F4F87
:10262000089590958095709561957F4F8F4F9F4F3E
:1026300008950E944E13A59F900DB49F900DA49FE6
:10264000800D911D11240895B7FF0C9419130E9459
:102650001913821B930B0895A1E21A2EAA1BBB1B10
:10266000FD010DC0AA1FBB1FEE1FFF1FA217B3075E
:10267000E407F50720F0A21BB30BE40BF50B661F74
:10268000771F881F991F1A9469F760957095809538
:1026900090959B01AC01BD01CF010895A29FB001AF
:1026A000B39FC001A39F700D811D1124911DB29F86
:1026B000700D811D1124911D08955058BB27AA2724
:1026C0000E9475130C94E8140E94DA1438F00E94EA
:1026D000E11420F039F49F3F19F426F40C94D71438
:1026E0000EF4E095E7FB0C94D114E92F0E94F91445
:1026F00058F3BA17620773078407950720F079F437
:10270000A6F50C941B150EF4E0950B2EBA2FA02DF8
:102710000B01B90190010C01CA01A0011124FF278E
:10272000591B99F0593F50F4503E68F11A16F04089
:10273000A22F232F342F4427585FF3CF4695379588
:102740002795A795F0405395C9F77EF41F16BA0B4D
:10275000620B730B840BBAF09150A1F0FF0FBB1FFB
:10276000661F771F881FC2F70EC0BA0F621F731F44
:10277000841F48F4879577956795B795F7959E3FA1
:1027800008F0B0CF9395880F08F09927EE0F979532
:10279000879508950E94AD1408F481E008950E9481
:1027A000E3130C94E8140E94E11458F00E94DA1428
:1027B00040F029F45F3F29F00C94D11451110C948E
:1027C0001C150C94D7140E94F91468F39923B1F3E3
:1027D000552391F3951B550BBB27AA276217730747
:1027E000840738F09F5F5F4F220F331F441FAA1FDB
:1027F000A9F335D00E2E3AF0E0E832D09150504097
:10280000E695001CCAF72BD0FE2F29D0660F771F44
:10281000881FBB1F261737074807AB07B0E809F02A
:10282000BB0B802DBF01FF2793585F4F3AF09E3FAF
:10283000510578F00C94D1140C941C155F3FE4F30F
:10284000983ED4F3869577956795B795F7959F5FF2
:10285000C9F7880F911D9695879597F90895E1E03E
:10286000660F771F881FBB1F621773078407BA079D
:1028700020F0621B730B840BBA0BEE1F88F7E095F8
:1028800008950E94011588F09F5798F0B92F992755
:10289000B751B0F0E1F0660F771F881F991F1AF04B
:1028A000BA95C9F714C0B13091F00E941B15B1E080
:1028B00008950C941B15672F782F8827B85F39F07F
:1028C000B93FCCF3869577956795B395D9F73EF4E4
:1028D00090958095709561957F4F8F4F9F4F08958C
:1028E000E89409C097FB3EF49095809570956195AA
:1028F0007F4F8F4F9F4F9923A9F0F92F96E9BB2760
:102900009395F695879577956795B795F111F8CFDB
:10291000FAF4BB0F11F460FF1BC06F5F7F4F8F4F46
:102920009F4F16C0882311F096E911C0772321F03C
:102930009EE8872F762F05C0662371F096E8862FD4
:1029400070E060E02AF09A95660F771F881FDAF72B
:10295000880F9695879597F90895990F0008550F58
:10296000AA0BE0E8FEEF16161706E807F907C0F015
:1029700012161306E407F50798F0621B730B840B1D
:10298000950B39F40A2661F0232B242B252B21F4F7
:1029900008950A2609F4A140A6958FEF811D811D97
:1029A000089597F99F6780E870E060E008959FEFD1
:1029B00080EC089500240A941616170618060906D6
:1029C000089500240A9412161306140605060895A5
:1029D000092E0394000C11F4882352F0BB0F40F42D
:1029E000BF2B11F460FF04C06F5F7F4F8F4F9F4F6D
:1029F000089557FD9058440F551F59F05F3F71F0EF
:102A00004795880F97FB991F61F09F3F79F0879555
:102A10000895121613061406551FF2CF4695F1DFDE
:102A200008C0161617061806991FF1CF869571056E
:102A3000610508940895E894BB2766277727CB01A2
:102A400097F908950E94AD1408F48FEF08950E943D
:102A50003A150C94E8140E94DA1438F00E94E1143C
:102A600020F0952311F00C94D1140C94D714112458
:102A70000C941C150E94F91470F3959FC1F3950FE7
:102A800050E0551F629FF001729FBB27F00DB11DF2
:102A9000639FAA27F00DB11DAA1F649F6627B00D82
:102AA000A11D661F829F2227B00DA11D621F739F6B
:102AB000B00DA11D621F839FA00D611D221F749F79
:102AC0003327A00D611D231F849F600D211D822FC0
:102AD000762F6A2F11249F5750409AF0F1F08823E7
:102AE0004AF0EE0FFF1FBB1F661F771F881F915014
:102AF0005040A9F79E3F510580F00C94D1140C94DE
:102B00001C155F3FE4F3983ED4F38695779567955F
:102B1000B795F795E7959F5FC1F7FE2B880F911D3D
:102B20009695879597F9089519F416F40C94D7148F
:102B30000C94DF150E940115B8F39923C9F3B6F37D
:102B40009F57550B87FF0E94ED150024A0E640EA31
:102B5000900180585695979528F4805C660F771FF2
:102B6000881F20F026173707480730F4621B730BC5
:102B7000840B202931294A2BA695179407942025E8
:102B800031254A2758F7660F771F881F20F0261730
:102B90003707480730F4620B730B840B200D311D8F
:102BA000411DA09581F7B901842F9158880F969502
:102BB000879508950E94AD14880B990B08959F3F47
:102BC00031F0915020F4879577956795B795880FE8
:102BD000911D9695879597F9089591505040660FED
:0C2BE000771F881FD2F70895F894FFCFEC
:102BEC0001314E6F646500324E6F646500334E6F79
:102BFC00646500344E6F646500354E6F6465003655
:102C0C004E6F646500010000010002803E800000F0
:102C1C00000366668640010001000000008903ED98
:102C2C00021603D6034703250339030D0A007374F8
:102C3C006172745F73657475700073746172745F24
:102C4C00726164696F006E616E00696E66006F760A
:082C5C00660074696D657200E9
:00000001FF
